{
  "address": "0x7f5C18c87412Aed596C38562Ad84E56A5e251900",
  "abi": [
    {
      "inputs": [],
      "name": "InvalidInitialization",
      "type": "error"
    },
    {
      "inputs": [],
      "name": "NotInitializing",
      "type": "error"
    },
    {
      "inputs": [
        {
          "internalType": "address",
          "name": "owner",
          "type": "address"
        }
      ],
      "name": "OwnableInvalidOwner",
      "type": "error"
    },
    {
      "inputs": [
        {
          "internalType": "address",
          "name": "account",
          "type": "address"
        }
      ],
      "name": "OwnableUnauthorizedAccount",
      "type": "error"
    },
    {
      "anonymous": false,
      "inputs": [
        {
          "indexed": false,
          "internalType": "uint64",
          "name": "version",
          "type": "uint64"
        }
      ],
      "name": "Initialized",
      "type": "event"
    },
    {
      "anonymous": false,
      "inputs": [
        {
          "indexed": true,
          "internalType": "address",
          "name": "previousOwner",
          "type": "address"
        },
        {
          "indexed": true,
          "internalType": "address",
          "name": "newOwner",
          "type": "address"
        }
      ],
      "name": "OwnershipTransferred",
      "type": "event"
    },
    {
      "inputs": [
        {
          "internalType": "contract IPoolAddressesProvider",
          "name": "_provider",
          "type": "address"
        },
        {
          "internalType": "address",
          "name": "_collector",
          "type": "address"
        },
        {
          "internalType": "address",
          "name": "_wethOrTargetAsset",
          "type": "address"
        },
        {
          "internalType": "address",
          "name": "_odos",
          "type": "address"
        },
        {
          "internalType": "address[]",
          "name": "_tokens",
          "type": "address[]"
        },
        {
          "internalType": "address",
          "name": "_gelatoooooo",
          "type": "address"
        },
        {
          "internalType": "address",
          "name": "_owner",
          "type": "address"
        }
      ],
      "name": "__FeesClaimer_init",
      "outputs": [],
      "stateMutability": "nonpayable",
      "type": "function"
    },
    {
      "inputs": [
        {
          "internalType": "uint256",
          "name": "",
          "type": "uint256"
        }
      ],
      "name": "aTokens",
      "outputs": [
        {
          "internalType": "contract IERC20",
          "name": "",
          "type": "address"
        }
      ],
      "stateMutability": "view",
      "type": "function"
    },
    {
      "inputs": [],
      "name": "approve",
      "outputs": [],
      "stateMutability": "nonpayable",
      "type": "function"
    },
    {
      "inputs": [],
      "name": "balances",
      "outputs": [
        {
          "internalType": "uint256[]",
          "name": "",
          "type": "uint256[]"
        },
        {
          "internalType": "address[]",
          "name": "",
          "type": "address[]"
        }
      ],
      "stateMutability": "view",
      "type": "function"
    },
    {
      "inputs": [],
      "name": "collect",
      "outputs": [
        {
          "internalType": "uint256[]",
          "name": "",
          "type": "uint256[]"
        }
      ],
      "stateMutability": "nonpayable",
      "type": "function"
    },
    {
      "inputs": [],
      "name": "collector",
      "outputs": [
        {
          "internalType": "address",
          "name": "",
          "type": "address"
        }
      ],
      "stateMutability": "view",
      "type": "function"
    },
    {
      "inputs": [],
      "name": "dataProvider",
      "outputs": [
        {
          "internalType": "contract IPoolDataProvider",
          "name": "",
          "type": "address"
        }
      ],
      "stateMutability": "view",
      "type": "function"
    },
    {
      "inputs": [
        {
          "internalType": "bytes",
          "name": "data",
          "type": "bytes"
        }
      ],
      "name": "execute",
      "outputs": [],
      "stateMutability": "nonpayable",
      "type": "function"
    },
    {
      "inputs": [],
      "name": "gelatoooooo",
      "outputs": [
        {
          "internalType": "address",
          "name": "",
          "type": "address"
        }
      ],
      "stateMutability": "view",
      "type": "function"
    },
    {
      "inputs": [
        {
          "internalType": "contract IPoolAddressesProvider",
          "name": "_provider",
          "type": "address"
        },
        {
          "internalType": "address",
          "name": "_collector",
          "type": "address"
        },
        {
          "internalType": "address",
          "name": "_wethOrTargetAsset",
          "type": "address"
        },
        {
          "internalType": "address",
          "name": "_odos",
          "type": "address"
        },
        {
          "internalType": "address[]",
          "name": "_tokens",
          "type": "address[]"
        },
        {
          "internalType": "address",
          "name": "_gelatoooooo",
          "type": "address"
        },
        {
          "internalType": "address",
          "name": "_owner",
          "type": "address"
        }
      ],
      "name": "initialize",
      "outputs": [],
      "stateMutability": "nonpayable",
      "type": "function"
    },
    {
      "inputs": [],
      "name": "odos",
      "outputs": [
        {
          "internalType": "address",
          "name": "",
          "type": "address"
        }
      ],
      "stateMutability": "view",
      "type": "function"
    },
    {
      "inputs": [],
      "name": "owner",
      "outputs": [
        {
          "internalType": "address",
          "name": "",
          "type": "address"
        }
      ],
      "stateMutability": "view",
      "type": "function"
    },
    {
      "inputs": [],
      "name": "pool",
      "outputs": [
        {
          "internalType": "contract IPool",
          "name": "",
          "type": "address"
        }
      ],
      "stateMutability": "view",
      "type": "function"
    },
    {
      "inputs": [
        {
          "internalType": "contract IERC20",
          "name": "token",
          "type": "address"
        }
      ],
      "name": "refund",
      "outputs": [],
      "stateMutability": "nonpayable",
      "type": "function"
    },
    {
      "inputs": [],
      "name": "renounceOwnership",
      "outputs": [],
      "stateMutability": "nonpayable",
      "type": "function"
    },
    {
      "inputs": [
        {
          "internalType": "address",
          "name": "_treasury",
          "type": "address"
        },
        {
          "internalType": "address",
          "name": "_zaiStaker",
          "type": "address"
        },
        {
          "internalType": "address",
          "name": "_zlpStaker",
          "type": "address"
        }
      ],
      "name": "setAddresses",
      "outputs": [],
      "stateMutability": "nonpayable",
      "type": "function"
    },
    {
      "inputs": [
        {
          "internalType": "address",
          "name": "_gelatoooooo",
          "type": "address"
        }
      ],
      "name": "setGelatoooooo",
      "outputs": [],
      "stateMutability": "nonpayable",
      "type": "function"
    },
    {
      "inputs": [
        {
          "internalType": "address",
          "name": "_odos",
          "type": "address"
        }
      ],
      "name": "setOdos",
      "outputs": [],
      "stateMutability": "nonpayable",
      "type": "function"
    },
    {
      "inputs": [
        {
          "internalType": "uint256",
          "name": "_treasuryPercentage",
          "type": "uint256"
        },
        {
          "internalType": "uint256",
          "name": "_zaiPercentage",
          "type": "uint256"
        }
      ],
      "name": "setPercentages",
      "outputs": [],
      "stateMutability": "nonpayable",
      "type": "function"
    },
    {
      "inputs": [
        {
          "internalType": "address[]",
          "name": "_tokens",
          "type": "address[]"
        }
      ],
      "name": "setTokens",
      "outputs": [],
      "stateMutability": "nonpayable",
      "type": "function"
    },
    {
      "inputs": [
        {
          "internalType": "uint256",
          "name": "",
          "type": "uint256"
        }
      ],
      "name": "tokens",
      "outputs": [
        {
          "internalType": "address",
          "name": "",
          "type": "address"
        }
      ],
      "stateMutability": "view",
      "type": "function"
    },
    {
      "inputs": [
        {
          "internalType": "address",
          "name": "newOwner",
          "type": "address"
        }
      ],
      "name": "transferOwnership",
      "outputs": [],
      "stateMutability": "nonpayable",
      "type": "function"
    },
    {
      "inputs": [],
      "name": "treasury",
      "outputs": [
        {
          "internalType": "address",
          "name": "",
          "type": "address"
        }
      ],
      "stateMutability": "view",
      "type": "function"
    },
    {
      "inputs": [],
      "name": "treasuryPercentage",
      "outputs": [
        {
          "internalType": "uint256",
          "name": "",
          "type": "uint256"
        }
      ],
      "stateMutability": "view",
      "type": "function"
    },
    {
      "inputs": [],
      "name": "wethOrTargetAsset",
      "outputs": [
        {
          "internalType": "contract IWETH",
          "name": "",
          "type": "address"
        }
      ],
      "stateMutability": "view",
      "type": "function"
    },
    {
      "inputs": [],
      "name": "zaiPercentage",
      "outputs": [
        {
          "internalType": "uint256",
          "name": "",
          "type": "uint256"
        }
      ],
      "stateMutability": "view",
      "type": "function"
    },
    {
      "inputs": [],
      "name": "zaiStaker",
      "outputs": [
        {
          "internalType": "contract IStaker",
          "name": "",
          "type": "address"
        }
      ],
      "stateMutability": "view",
      "type": "function"
    },
    {
      "inputs": [],
      "name": "zlpStaker",
      "outputs": [
        {
          "internalType": "contract IStaker",
          "name": "",
          "type": "address"
        }
      ],
      "stateMutability": "view",
      "type": "function"
    },
    {
      "stateMutability": "payable",
      "type": "receive"
    }
  ],
  "transactionHash": "0x0a265010ff578f688c7f6e92551f0959974317cff609614e5df288751f3425f9",
  "args": [],
  "numDeployments": 1,
  "solcInputHash": "1089488ec02e35169e99b10d408c6d0a",
  "bytecode": "0x608060405234801561001057600080fd5b50613294806100206000396000f3fe6080604052600436106101bb5760003560e01c80637ab56083116100ec578063bd2ec8c51161008a578063f615fd1b11610064578063f615fd1b1461063c578063f86832d514610665578063fa89401a14610690578063fd61958b146106b957610240565b8063bd2ec8c5146105bf578063e5225381146105e8578063f2fde38b1461061357610240565b80638da5cb5b116100c65780638da5cb5b14610513578063913e77ad1461053e5780639699206614610569578063b334ed861461059457610240565b80637ab56083146104935780637bb98a68146104be5780638ba7023b146104ea57610240565b80634f64b2be1161015957806361d027b31161013357806361d027b3146103ff578063625adaf21461042a5780636ba1644b14610453578063715018a61461047c57610240565b80634f64b2be1461036c578063553fb4b5146103a95780635729be30146103d457610240565b80631eba02ec116101955780631eba02ec146102b0578063324e4b57146102db578063363bf9641461031857806338cb56bf1461034157610240565b806309c5eabe1461024557806312424e3f1461026e57806316f0115b1461028557610240565b3661024057600760009054906101000a900473ffffffffffffffffffffffffffffffffffffffff1673ffffffffffffffffffffffffffffffffffffffff1663d0e30db0346040518263ffffffff1660e01b81526004016000604051808303818588803b15801561022a57600080fd5b505af115801561023e573d6000803e3d6000fd5b005b600080fd5b34801561025157600080fd5b5061026c60048036038101906102679190612454565b6106e2565b005b34801561027a57600080fd5b50610283610b9c565b005b34801561029157600080fd5b5061029a610cc1565b6040516102a7919061251c565b60405180910390f35b3480156102bc57600080fd5b506102c5610ce7565b6040516102d29190612558565b60405180910390f35b3480156102e757600080fd5b5061030260048036038101906102fd91906125a9565b610d0d565b60405161030f91906125f7565b60405180910390f35b34801561032457600080fd5b5061033f600480360381019061033a919061263e565b610d4c565b005b34801561034d57600080fd5b50610356610e1c565b60405161036391906126b2565b60405180910390f35b34801561037857600080fd5b50610393600480360381019061038e91906125a9565b610e42565b6040516103a09190612558565b60405180910390f35b3480156103b557600080fd5b506103be610e81565b6040516103cb91906126dc565b60405180910390f35b3480156103e057600080fd5b506103e9610e87565b6040516103f69190612718565b60405180910390f35b34801561040b57600080fd5b50610414610ead565b6040516104219190612558565b60405180910390f35b34801561043657600080fd5b50610451600480360381019061044c91906127fb565b610ed3565b005b34801561045f57600080fd5b5061047a60048036038101906104759190612844565b611086565b005b34801561048857600080fd5b506104916110d2565b005b34801561049f57600080fd5b506104a86110e6565b6040516104b591906126dc565b60405180910390f35b3480156104ca57600080fd5b506104d36110ec565b6040516104e19291906129ed565b60405180910390f35b3480156104f657600080fd5b50610511600480360381019061050c9190612844565b6112d0565b005b34801561051f57600080fd5b5061052861131c565b6040516105359190612558565b60405180910390f35b34801561054a57600080fd5b50610553611354565b6040516105609190612558565b60405180910390f35b34801561057557600080fd5b5061057e611378565b60405161058b9190612558565b60405180910390f35b3480156105a057600080fd5b506105a961139e565b6040516105b69190612a45565b60405180910390f35b3480156105cb57600080fd5b506105e660048036038101906105e19190612a60565b6113c4565b005b3480156105f457600080fd5b506105fd6113de565b60405161060a9190612aa0565b60405180910390f35b34801561061f57600080fd5b5061063a60048036038101906106359190612844565b611831565b005b34801561064857600080fd5b50610663600480360381019061065e9190612b00565b6118b7565b005b34801561067157600080fd5b5061067a6119fb565b60405161068791906126b2565b60405180910390f35b34801561069c57600080fd5b506106b760048036038101906106b29190612bfc565b611a21565b005b3480156106c557600080fd5b506106e060048036038101906106db9190612b00565b611b24565b005b6106eb81611d71565b6000600760009054906101000a900473ffffffffffffffffffffffffffffffffffffffff1673ffffffffffffffffffffffffffffffffffffffff166370a08231306040518263ffffffff1660e01b81526004016107489190612558565b602060405180830381865afa158015610765573d6000803e3d6000fd5b505050506040513d601f19601f820116820180604052508101906107899190612c3e565b90506000670de0b6b3a7640000600854836107a49190612c9a565b6107ae9190612d0b565b9050600081111561087d57600760009054906101000a900473ffffffffffffffffffffffffffffffffffffffff1673ffffffffffffffffffffffffffffffffffffffff1663a9059cbb600a60009054906101000a900473ffffffffffffffffffffffffffffffffffffffff16836040518363ffffffff1660e01b8152600401610838929190612d3c565b6020604051808303816000875af1158015610857573d6000803e3d6000fd5b505050506040513d601f19601f8201168201806040525081019061087b9190612d9d565b505b6000670de0b6b3a7640000600954846108969190612c9a565b6108a09190612d0b565b90506000811115610a2057600760009054906101000a900473ffffffffffffffffffffffffffffffffffffffff1673ffffffffffffffffffffffffffffffffffffffff1663095ea7b3600b60009054906101000a900473ffffffffffffffffffffffffffffffffffffffff16836040518363ffffffff1660e01b815260040161092a929190612d3c565b6020604051808303816000875af1158015610949573d6000803e3d6000fd5b505050506040513d601f19601f8201168201806040525081019061096d9190612d9d565b50600b60009054906101000a900473ffffffffffffffffffffffffffffffffffffffff1673ffffffffffffffffffffffffffffffffffffffff1663b66503cf600760009054906101000a900473ffffffffffffffffffffffffffffffffffffffff16836040518363ffffffff1660e01b81526004016109ed929190612dca565b600060405180830381600087803b158015610a0757600080fd5b505af1158015610a1b573d6000803e3d6000fd5b505050505b6000818385610a2f9190612df3565b610a399190612df3565b90506000811115610b9557600760009054906101000a900473ffffffffffffffffffffffffffffffffffffffff1673ffffffffffffffffffffffffffffffffffffffff1663095ea7b3600c60009054906101000a900473ffffffffffffffffffffffffffffffffffffffff16836040518363ffffffff1660e01b8152600401610ac3929190612d3c565b6020604051808303816000875af1158015610ae2573d6000803e3d6000fd5b505050506040513d601f19601f82011682018060405250810190610b069190612d9d565b50600c60009054906101000a900473ffffffffffffffffffffffffffffffffffffffff1673ffffffffffffffffffffffffffffffffffffffff16633c6b16ab826040518263ffffffff1660e01b8152600401610b6291906126dc565b600060405180830381600087803b158015610b7c57600080fd5b505af1158015610b90573d6000803e3d6000fd5b505050505b5050505050565b60005b600380549050811015610cbe5760038181548110610bc057610bbf612e27565b5b9060005260206000200160009054906101000a900473ffffffffffffffffffffffffffffffffffffffff1673ffffffffffffffffffffffffffffffffffffffff1663095ea7b3600260009054906101000a900473ffffffffffffffffffffffffffffffffffffffff167fffffffffffffffffffffffffffffffffffffffffffffffffffffffffffffffff6040518363ffffffff1660e01b8152600401610c67929190612d3c565b6020604051808303816000875af1158015610c86573d6000803e3d6000fd5b505050506040513d601f19601f82011682018060405250810190610caa9190612d9d565b508080610cb690612e56565b915050610b9f565b50565b600560009054906101000a900473ffffffffffffffffffffffffffffffffffffffff1681565b600260009054906101000a900473ffffffffffffffffffffffffffffffffffffffff1681565b60048181548110610d1d57600080fd5b906000526020600020016000915054906101000a900473ffffffffffffffffffffffffffffffffffffffff1681565b610d54611f19565b82600a60006101000a81548173ffffffffffffffffffffffffffffffffffffffff021916908373ffffffffffffffffffffffffffffffffffffffff16021790555081600b60006101000a81548173ffffffffffffffffffffffffffffffffffffffff021916908373ffffffffffffffffffffffffffffffffffffffff16021790555080600c60006101000a81548173ffffffffffffffffffffffffffffffffffffffff021916908373ffffffffffffffffffffffffffffffffffffffff160217905550505050565b600c60009054906101000a900473ffffffffffffffffffffffffffffffffffffffff1681565b60038181548110610e5257600080fd5b906000526020600020016000915054906101000a900473ffffffffffffffffffffffffffffffffffffffff1681565b60095481565b600760009054906101000a900473ffffffffffffffffffffffffffffffffffffffff1681565b600a60009054906101000a900473ffffffffffffffffffffffffffffffffffffffff1681565b610edb611f19565b8060039080519060200190610ef19291906121c9565b506000815167ffffffffffffffff811115610f0f57610f0e612329565b5b604051908082528060200260200182016040528015610f3d5781602001602082028036833780820191505090505b50905060005b825181101561106a576000600660009054906101000a900473ffffffffffffffffffffffffffffffffffffffff1673ffffffffffffffffffffffffffffffffffffffff1663d2493b6c858481518110610f9f57610f9e612e27565b5b60200260200101516040518263ffffffff1660e01b8152600401610fc39190612558565b606060405180830381865afa158015610fe0573d6000803e3d6000fd5b505050506040513d601f19601f820116820180604052508101906110049190612eb3565b505090508083838151811061101c5761101b612e27565b5b602002602001019073ffffffffffffffffffffffffffffffffffffffff16908173ffffffffffffffffffffffffffffffffffffffff168152505050808061106290612e56565b915050610f43565b508060049080519060200190611081929190612253565b505050565b61108e611f19565b80600160006101000a81548173ffffffffffffffffffffffffffffffffffffffff021916908373ffffffffffffffffffffffffffffffffffffffff16021790555050565b6110da611f19565b6110e46000611fa0565b565b60085481565b606080600060038054905067ffffffffffffffff8111156111105761110f612329565b5b60405190808252806020026020018201604052801561113e5781602001602082028036833780820191505090505b50905060005b60038054905081101561123b576003818154811061116557611164612e27565b5b9060005260206000200160009054906101000a900473ffffffffffffffffffffffffffffffffffffffff1673ffffffffffffffffffffffffffffffffffffffff166370a08231306040518263ffffffff1660e01b81526004016111c89190612558565b602060405180830381865afa1580156111e5573d6000803e3d6000fd5b505050506040513d601f19601f820116820180604052508101906112099190612c3e565b82828151811061121c5761121b612e27565b5b602002602001018181525050808061123390612e56565b915050611144565b50806003808054806020026020016040519081016040528092919081815260200182805480156112c057602002820191906000526020600020905b8160009054906101000a900473ffffffffffffffffffffffffffffffffffffffff1673ffffffffffffffffffffffffffffffffffffffff1681526020019060010190808311611276575b5050505050905092509250509091565b6112d8611f19565b80600260006101000a81548173ffffffffffffffffffffffffffffffffffffffff021916908373ffffffffffffffffffffffffffffffffffffffff16021790555050565b600080611327612077565b90508060000160009054906101000a900473ffffffffffffffffffffffffffffffffffffffff1691505090565b60008054906101000a900473ffffffffffffffffffffffffffffffffffffffff1681565b600160009054906101000a900473ffffffffffffffffffffffffffffffffffffffff1681565b600660009054906101000a900473ffffffffffffffffffffffffffffffffffffffff1681565b6113cc611f19565b81600881905550806009819055505050565b6060600560009054906101000a900473ffffffffffffffffffffffffffffffffffffffff1673ffffffffffffffffffffffffffffffffffffffff16639cd1999660036040518263ffffffff1660e01b815260040161143c9190612ff2565b600060405180830381600087803b15801561145657600080fd5b505af115801561146a573d6000803e3d6000fd5b50505050600060038054905067ffffffffffffffff81111561148f5761148e612329565b5b6040519080825280602002602001820160405280156114bd5781602001602082028036833780820191505090505b50905060005b600380549050811015611829576000600482815481106114e6576114e5612e27565b5b9060005260206000200160009054906101000a900473ffffffffffffffffffffffffffffffffffffffff16905060008173ffffffffffffffffffffffffffffffffffffffff166370a0823160008054906101000a900473ffffffffffffffffffffffffffffffffffffffff166040518263ffffffff1660e01b815260040161156e9190612558565b602060405180830381865afa15801561158b573d6000803e3d6000fd5b505050506040513d601f19601f820116820180604052508101906115af9190612c3e565b90506000811115611814578173ffffffffffffffffffffffffffffffffffffffff166323b872dd60008054906101000a900473ffffffffffffffffffffffffffffffffffffffff1630846040518463ffffffff1660e01b815260040161161793929190613014565b6020604051808303816000875af1158015611636573d6000803e3d6000fd5b505050506040513d601f19601f8201168201806040525081019061165a9190612d9d565b50600560009054906101000a900473ffffffffffffffffffffffffffffffffffffffff1673ffffffffffffffffffffffffffffffffffffffff166369328dec600385815481106116ad576116ac612e27565b5b9060005260206000200160009054906101000a900473ffffffffffffffffffffffffffffffffffffffff1683306040518463ffffffff1660e01b81526004016116f89392919061304b565b6020604051808303816000875af1158015611717573d6000803e3d6000fd5b505050506040513d601f19601f8201168201806040525081019061173b9190612c3e565b50600383815481106117505761174f612e27565b5b9060005260206000200160009054906101000a900473ffffffffffffffffffffffffffffffffffffffff1673ffffffffffffffffffffffffffffffffffffffff166370a08231306040518263ffffffff1660e01b81526004016117b39190612558565b602060405180830381865afa1580156117d0573d6000803e3d6000fd5b505050506040513d601f19601f820116820180604052508101906117f49190612c3e565b84848151811061180757611806612e27565b5b6020026020010181815250505b5050808061182190612e56565b9150506114c3565b508091505090565b611839611f19565b600073ffffffffffffffffffffffffffffffffffffffff168173ffffffffffffffffffffffffffffffffffffffff16036118ab5760006040517f1e4fbdf70000000000000000000000000000000000000000000000000000000081526004016118a29190612558565b60405180910390fd5b6118b481611fa0565b50565b600160006118c361209f565b90508060000160089054906101000a900460ff168061190e57508167ffffffffffffffff168160000160009054906101000a900467ffffffffffffffff1667ffffffffffffffff1610155b15611945576040517ff92ee8a900000000000000000000000000000000000000000000000000000000815260040160405180910390fd5b818160000160006101000a81548167ffffffffffffffff021916908367ffffffffffffffff16021790555060018160000160086101000a81548160ff02191690831515021790555061199c89898989898989611b24565b60008160000160086101000a81548160ff0219169083151502179055507fc7f505b2f371ae2175ee4913f4499e1f2633a7b5936321eed1cdaeb6115181d2826040516119e891906130a5565b60405180910390a1505050505050505050565b600b60009054906101000a900473ffffffffffffffffffffffffffffffffffffffff1681565b611a29611f19565b8073ffffffffffffffffffffffffffffffffffffffff1663a9059cbb338373ffffffffffffffffffffffffffffffffffffffff166370a08231306040518263ffffffff1660e01b8152600401611a7f9190612558565b602060405180830381865afa158015611a9c573d6000803e3d6000fd5b505050506040513d601f19601f82011682018060405250810190611ac09190612c3e565b6040518363ffffffff1660e01b8152600401611add929190612d3c565b6020604051808303816000875af1158015611afc573d6000803e3d6000fd5b505050506040513d601f19601f82011682018060405250810190611b209190612d9d565b5050565b611b2d336120c7565b856000806101000a81548173ffffffffffffffffffffffffffffffffffffffff021916908373ffffffffffffffffffffffffffffffffffffffff16021790555084600760006101000a81548173ffffffffffffffffffffffffffffffffffffffff021916908373ffffffffffffffffffffffffffffffffffffffff1602179055508673ffffffffffffffffffffffffffffffffffffffff1663026b1d5f6040518163ffffffff1660e01b8152600401602060405180830381865afa158015611bf9573d6000803e3d6000fd5b505050506040513d601f19601f82011682018060405250810190611c1d91906130c0565b600560006101000a81548173ffffffffffffffffffffffffffffffffffffffff021916908373ffffffffffffffffffffffffffffffffffffffff16021790555081600160006101000a81548173ffffffffffffffffffffffffffffffffffffffff021916908373ffffffffffffffffffffffffffffffffffffffff1602179055508673ffffffffffffffffffffffffffffffffffffffff1663e860accb6040518163ffffffff1660e01b8152600401602060405180830381865afa158015611ce9573d6000803e3d6000fd5b505050506040513d601f19601f82011682018060405250810190611d0d91906130c0565b600660006101000a81548173ffffffffffffffffffffffffffffffffffffffff021916908373ffffffffffffffffffffffffffffffffffffffff160217905550611d5683610ed3565b611d5f846112d0565b611d6881611fa0565b50505050505050565b611d7961131c565b73ffffffffffffffffffffffffffffffffffffffff163373ffffffffffffffffffffffffffffffffffffffff161480611dff5750600160009054906101000a900473ffffffffffffffffffffffffffffffffffffffff1673ffffffffffffffffffffffffffffffffffffffff163373ffffffffffffffffffffffffffffffffffffffff16145b611e3e576040517f08c379a0000000000000000000000000000000000000000000000000000000008152600401611e359061314a565b60405180910390fd5b611e46610b9c565b6000600260009054906101000a900473ffffffffffffffffffffffffffffffffffffffff1673ffffffffffffffffffffffffffffffffffffffff1682604051611e8f91906131db565b6000604051808303816000865af19150503d8060008114611ecc576040519150601f19603f3d011682016040523d82523d6000602084013e611ed1565b606091505b5050905080611f15576040517f08c379a0000000000000000000000000000000000000000000000000000000008152600401611f0c9061323e565b60405180910390fd5b5050565b611f216120db565b73ffffffffffffffffffffffffffffffffffffffff16611f3f61131c565b73ffffffffffffffffffffffffffffffffffffffff1614611f9e57611f626120db565b6040517f118cdaa7000000000000000000000000000000000000000000000000000000008152600401611f959190612558565b60405180910390fd5b565b6000611faa612077565b905060008160000160009054906101000a900473ffffffffffffffffffffffffffffffffffffffff169050828260000160006101000a81548173ffffffffffffffffffffffffffffffffffffffff021916908373ffffffffffffffffffffffffffffffffffffffff1602179055508273ffffffffffffffffffffffffffffffffffffffff168173ffffffffffffffffffffffffffffffffffffffff167f8be0079c531659141344cd1fd0a4f28419497f9722a3daafe3b4186f6b6457e060405160405180910390a3505050565b60007f9016d09d72d40fdae2fd8ceac6b6234c7706214fd39c1cd1e609a0528c199300905090565b60007ff0c57e16840df040f15088dc2f81fe391c3923bec73e23a9662efc9c229c6a00905090565b6120cf6120e3565b6120d881612123565b50565b600033905090565b6120eb6121a9565b612121576040517fd7e6bcf800000000000000000000000000000000000000000000000000000000815260040160405180910390fd5b565b61212b6120e3565b600073ffffffffffffffffffffffffffffffffffffffff168173ffffffffffffffffffffffffffffffffffffffff160361219d5760006040517f1e4fbdf70000000000000000000000000000000000000000000000000000000081526004016121949190612558565b60405180910390fd5b6121a681611fa0565b50565b60006121b361209f565b60000160089054906101000a900460ff16905090565b828054828255906000526020600020908101928215612242579160200282015b828111156122415782518260006101000a81548173ffffffffffffffffffffffffffffffffffffffff021916908373ffffffffffffffffffffffffffffffffffffffff160217905550916020019190600101906121e9565b5b50905061224f91906122dd565b5090565b8280548282559060005260206000209081019282156122cc579160200282015b828111156122cb5782518260006101000a81548173ffffffffffffffffffffffffffffffffffffffff021916908373ffffffffffffffffffffffffffffffffffffffff16021790555091602001919060010190612273565b5b5090506122d991906122dd565b5090565b5b808211156122f65760008160009055506001016122de565b5090565b6000604051905090565b600080fd5b600080fd5b600080fd5b600080fd5b6000601f19601f8301169050919050565b7f4e487b7100000000000000000000000000000000000000000000000000000000600052604160045260246000fd5b61236182612318565b810181811067ffffffffffffffff821117156123805761237f612329565b5b80604052505050565b60006123936122fa565b905061239f8282612358565b919050565b600067ffffffffffffffff8211156123bf576123be612329565b5b6123c882612318565b9050602081019050919050565b82818337600083830152505050565b60006123f76123f2846123a4565b612389565b90508281526020810184848401111561241357612412612313565b5b61241e8482856123d5565b509392505050565b600082601f83011261243b5761243a61230e565b5b813561244b8482602086016123e4565b91505092915050565b60006020828403121561246a57612469612304565b5b600082013567ffffffffffffffff81111561248857612487612309565b5b61249484828501612426565b91505092915050565b600073ffffffffffffffffffffffffffffffffffffffff82169050919050565b6000819050919050565b60006124e26124dd6124d88461249d565b6124bd565b61249d565b9050919050565b60006124f4826124c7565b9050919050565b6000612506826124e9565b9050919050565b612516816124fb565b82525050565b6000602082019050612531600083018461250d565b92915050565b60006125428261249d565b9050919050565b61255281612537565b82525050565b600060208201905061256d6000830184612549565b92915050565b6000819050919050565b61258681612573565b811461259157600080fd5b50565b6000813590506125a38161257d565b92915050565b6000602082840312156125bf576125be612304565b5b60006125cd84828501612594565b91505092915050565b60006125e1826124e9565b9050919050565b6125f1816125d6565b82525050565b600060208201905061260c60008301846125e8565b92915050565b61261b81612537565b811461262657600080fd5b50565b60008135905061263881612612565b92915050565b60008060006060848603121561265757612656612304565b5b600061266586828701612629565b935050602061267686828701612629565b925050604061268786828701612629565b9150509250925092565b600061269c826124e9565b9050919050565b6126ac81612691565b82525050565b60006020820190506126c760008301846126a3565b92915050565b6126d681612573565b82525050565b60006020820190506126f160008301846126cd565b92915050565b6000612702826124e9565b9050919050565b612712816126f7565b82525050565b600060208201905061272d6000830184612709565b92915050565b600067ffffffffffffffff82111561274e5761274d612329565b5b602082029050602081019050919050565b600080fd5b600061277761277284612733565b612389565b9050808382526020820190506020840283018581111561279a5761279961275f565b5b835b818110156127c357806127af8882612629565b84526020840193505060208101905061279c565b5050509392505050565b600082601f8301126127e2576127e161230e565b5b81356127f2848260208601612764565b91505092915050565b60006020828403121561281157612810612304565b5b600082013567ffffffffffffffff81111561282f5761282e612309565b5b61283b848285016127cd565b91505092915050565b60006020828403121561285a57612859612304565b5b600061286884828501612629565b91505092915050565b600081519050919050565b600082825260208201905092915050565b6000819050602082019050919050565b6128a681612573565b82525050565b60006128b8838361289d565b60208301905092915050565b6000602082019050919050565b60006128dc82612871565b6128e6818561287c565b93506128f18361288d565b8060005b8381101561292257815161290988826128ac565b9750612914836128c4565b9250506001810190506128f5565b5085935050505092915050565b600081519050919050565b600082825260208201905092915050565b6000819050602082019050919050565b61296481612537565b82525050565b6000612976838361295b565b60208301905092915050565b6000602082019050919050565b600061299a8261292f565b6129a4818561293a565b93506129af8361294b565b8060005b838110156129e05781516129c7888261296a565b97506129d283612982565b9250506001810190506129b3565b5085935050505092915050565b60006040820190508181036000830152612a0781856128d1565b90508181036020830152612a1b818461298f565b90509392505050565b6000612a2f826124e9565b9050919050565b612a3f81612a24565b82525050565b6000602082019050612a5a6000830184612a36565b92915050565b60008060408385031215612a7757612a76612304565b5b6000612a8585828601612594565b9250506020612a9685828601612594565b9150509250929050565b60006020820190508181036000830152612aba81846128d1565b905092915050565b6000612acd82612537565b9050919050565b612add81612ac2565b8114612ae857600080fd5b50565b600081359050612afa81612ad4565b92915050565b600080600080600080600060e0888a031215612b1f57612b1e612304565b5b6000612b2d8a828b01612aeb565b9750506020612b3e8a828b01612629565b9650506040612b4f8a828b01612629565b9550506060612b608a828b01612629565b945050608088013567ffffffffffffffff811115612b8157612b80612309565b5b612b8d8a828b016127cd565b93505060a0612b9e8a828b01612629565b92505060c0612baf8a828b01612629565b91505092959891949750929550565b6000612bc982612537565b9050919050565b612bd981612bbe565b8114612be457600080fd5b50565b600081359050612bf681612bd0565b92915050565b600060208284031215612c1257612c11612304565b5b6000612c2084828501612be7565b91505092915050565b600081519050612c388161257d565b92915050565b600060208284031215612c5457612c53612304565b5b6000612c6284828501612c29565b91505092915050565b7f4e487b7100000000000000000000000000000000000000000000000000000000600052601160045260246000fd5b6000612ca582612573565b9150612cb083612573565b9250828202612cbe81612573565b91508282048414831517612cd557612cd4612c6b565b5b5092915050565b7f4e487b7100000000000000000000000000000000000000000000000000000000600052601260045260246000fd5b6000612d1682612573565b9150612d2183612573565b925082612d3157612d30612cdc565b5b828204905092915050565b6000604082019050612d516000830185612549565b612d5e60208301846126cd565b9392505050565b60008115159050919050565b612d7a81612d65565b8114612d8557600080fd5b50565b600081519050612d9781612d71565b92915050565b600060208284031215612db357612db2612304565b5b6000612dc184828501612d88565b91505092915050565b6000604082019050612ddf6000830185612709565b612dec60208301846126cd565b9392505050565b6000612dfe82612573565b9150612e0983612573565b9250828203905081811115612e2157612e20612c6b565b5b92915050565b7f4e487b7100000000000000000000000000000000000000000000000000000000600052603260045260246000fd5b6000612e6182612573565b91507fffffffffffffffffffffffffffffffffffffffffffffffffffffffffffffffff8203612e9357612e92612c6b565b5b600182019050919050565b600081519050612ead81612612565b92915050565b600080600060608486031215612ecc57612ecb612304565b5b6000612eda86828701612e9e565b9350506020612eeb86828701612e9e565b9250506040612efc86828701612e9e565b9150509250925092565b600081549050919050565b60008190508160005260206000209050919050565b60008160001c9050919050565b600073ffffffffffffffffffffffffffffffffffffffff82169050919050565b6000612f66612f6183612f26565b612f33565b9050919050565b6000612f798254612f53565b9050919050565b6000600182019050919050565b6000612f9882612f06565b612fa2818561293a565b9350612fad83612f11565b8060005b83811015612fe557612fc282612f6d565b612fcc888261296a565b9750612fd783612f80565b925050600181019050612fb1565b5085935050505092915050565b6000602082019050818103600083015261300c8184612f8d565b905092915050565b60006060820190506130296000830186612549565b6130366020830185612549565b61304360408301846126cd565b949350505050565b60006060820190506130606000830186612549565b61306d60208301856126cd565b61307a6040830184612549565b949350505050565b600067ffffffffffffffff82169050919050565b61309f81613082565b82525050565b60006020820190506130ba6000830184613096565b92915050565b6000602082840312156130d6576130d5612304565b5b60006130e484828501612e9e565b91505092915050565b600082825260208201905092915050565b7f77686f206469733f000000000000000000000000000000000000000000000000600082015250565b60006131346008836130ed565b915061313f826130fe565b602082019050919050565b6000602082019050818103600083015261316381613127565b9050919050565b600081519050919050565b600081905092915050565b60005b8381101561319e578082015181840152602081019050613183565b60008484015250505050565b60006131b58261316a565b6131bf8185613175565b93506131cf818560208601613180565b80840191505092915050565b60006131e782846131aa565b915081905092915050565b7f6f646f732063616c6c206661696c656400000000000000000000000000000000600082015250565b60006132286010836130ed565b9150613233826131f2565b602082019050919050565b600060208201905081810360008301526132578161321b565b905091905056fea26469706673582212202c0ade474274d2da3c83e9e76890abbbfce56e22861fc7353ea8ccccdb11717764736f6c63430008140033",
  "devdoc": {
    "errors": {
      "InvalidInitialization()": [
        {
          "details": "The contract is already initialized."
        }
      ],
      "NotInitializing()": [
        {
          "details": "The contract is not initializing."
        }
      ],
      "OwnableInvalidOwner(address)": [
        {
          "details": "The owner is not a valid owner account. (eg. `address(0)`)"
        }
      ],
      "OwnableUnauthorizedAccount(address)": [
        {
          "details": "The caller account is not authorized to perform an operation."
        }
      ]
    },
    "events": {
      "Initialized(uint64)": {
        "details": "Triggered when the contract has been initialized or reinitialized."
      }
    },
    "kind": "dev",
    "methods": {
      "owner()": {
        "details": "Returns the address of the current owner."
      },
      "renounceOwnership()": {
        "details": "Leaves the contract without owner. It will not be possible to call `onlyOwner` functions. Can only be called by the current owner. NOTE: Renouncing ownership will leave the contract without an owner, thereby disabling any functionality that is only available to the owner."
      },
      "transferOwnership(address)": {
        "details": "Transfers ownership of the contract to a new account (`newOwner`). Can only be called by the current owner."
      }
    },
    "version": 1
  },
  "userdoc": {
    "kind": "user",
    "methods": {},
    "version": 1
  },
  "storageLayout": {
    "storage": [
      {
        "astId": 2263,
        "contract": "contracts/fees-claimer/FeesClaimerBase.sol:FeesClaimerBase",
        "label": "collector",
        "offset": 0,
        "slot": "0",
        "type": "t_address"
      },
      {
        "astId": 2265,
        "contract": "contracts/fees-claimer/FeesClaimerBase.sol:FeesClaimerBase",
        "label": "gelatoooooo",
        "offset": 0,
        "slot": "1",
        "type": "t_address"
      },
      {
        "astId": 2267,
        "contract": "contracts/fees-claimer/FeesClaimerBase.sol:FeesClaimerBase",
        "label": "odos",
        "offset": 0,
        "slot": "2",
        "type": "t_address"
      },
      {
        "astId": 2270,
        "contract": "contracts/fees-claimer/FeesClaimerBase.sol:FeesClaimerBase",
        "label": "tokens",
        "offset": 0,
        "slot": "3",
        "type": "t_array(t_address)dyn_storage"
      },
      {
        "astId": 2274,
        "contract": "contracts/fees-claimer/FeesClaimerBase.sol:FeesClaimerBase",
        "label": "aTokens",
        "offset": 0,
        "slot": "4",
        "type": "t_array(t_contract(IERC20)576)dyn_storage"
      },
      {
        "astId": 2277,
        "contract": "contracts/fees-claimer/FeesClaimerBase.sol:FeesClaimerBase",
        "label": "pool",
        "offset": 0,
        "slot": "5",
        "type": "t_contract(IPool)1230"
      },
      {
        "astId": 2280,
        "contract": "contracts/fees-claimer/FeesClaimerBase.sol:FeesClaimerBase",
        "label": "dataProvider",
        "offset": 0,
        "slot": "6",
        "type": "t_contract(IPoolDataProvider)1663"
      },
      {
        "astId": 2283,
        "contract": "contracts/fees-claimer/FeesClaimerBase.sol:FeesClaimerBase",
        "label": "wethOrTargetAsset",
        "offset": 0,
        "slot": "7",
        "type": "t_contract(IWETH)2243"
      },
      {
        "astId": 2028,
        "contract": "contracts/fees-claimer/FeesClaimerBase.sol:FeesClaimerBase",
        "label": "treasuryPercentage",
        "offset": 0,
        "slot": "8",
        "type": "t_uint256"
      },
      {
        "astId": 2030,
        "contract": "contracts/fees-claimer/FeesClaimerBase.sol:FeesClaimerBase",
        "label": "zaiPercentage",
        "offset": 0,
        "slot": "9",
        "type": "t_uint256"
      },
      {
        "astId": 2032,
        "contract": "contracts/fees-claimer/FeesClaimerBase.sol:FeesClaimerBase",
        "label": "treasury",
        "offset": 0,
        "slot": "10",
        "type": "t_address"
      },
      {
        "astId": 2035,
        "contract": "contracts/fees-claimer/FeesClaimerBase.sol:FeesClaimerBase",
        "label": "zaiStaker",
        "offset": 0,
        "slot": "11",
        "type": "t_contract(IStaker)2257"
      },
      {
        "astId": 2038,
        "contract": "contracts/fees-claimer/FeesClaimerBase.sol:FeesClaimerBase",
        "label": "zlpStaker",
        "offset": 0,
        "slot": "12",
        "type": "t_contract(IStaker)2257"
      }
    ],
    "types": {
      "t_address": {
        "encoding": "inplace",
        "label": "address",
        "numberOfBytes": "20"
      },
      "t_array(t_address)dyn_storage": {
        "base": "t_address",
        "encoding": "dynamic_array",
        "label": "address[]",
        "numberOfBytes": "32"
      },
      "t_array(t_contract(IERC20)576)dyn_storage": {
        "base": "t_contract(IERC20)576",
        "encoding": "dynamic_array",
        "label": "contract IERC20[]",
        "numberOfBytes": "32"
      },
      "t_contract(IERC20)576": {
        "encoding": "inplace",
        "label": "contract IERC20",
        "numberOfBytes": "20"
      },
      "t_contract(IPool)1230": {
        "encoding": "inplace",
        "label": "contract IPool",
        "numberOfBytes": "20"
      },
      "t_contract(IPoolDataProvider)1663": {
        "encoding": "inplace",
        "label": "contract IPoolDataProvider",
        "numberOfBytes": "20"
      },
      "t_contract(IStaker)2257": {
        "encoding": "inplace",
        "label": "contract IStaker",
        "numberOfBytes": "20"
      },
      "t_contract(IWETH)2243": {
        "encoding": "inplace",
        "label": "contract IWETH",
        "numberOfBytes": "20"
      },
      "t_uint256": {
        "encoding": "inplace",
        "label": "uint256",
        "numberOfBytes": "32"
      }
    }
  }
}