{
  "address": "0x76d4161Aa6FEAcF416b1DA9Db07713EDbB3d0A79",
  "abi": [
    {
      "inputs": [],
      "name": "InvalidInitialization",
      "type": "error"
    },
    {
      "inputs": [],
      "name": "NotInitializing",
      "type": "error"
    },
    {
      "inputs": [
        {
          "internalType": "address",
          "name": "owner",
          "type": "address"
        }
      ],
      "name": "OwnableInvalidOwner",
      "type": "error"
    },
    {
      "inputs": [
        {
          "internalType": "address",
          "name": "account",
          "type": "address"
        }
      ],
      "name": "OwnableUnauthorizedAccount",
      "type": "error"
    },
    {
      "anonymous": false,
      "inputs": [
        {
          "indexed": false,
          "internalType": "uint64",
          "name": "version",
          "type": "uint64"
        }
      ],
      "name": "Initialized",
      "type": "event"
    },
    {
      "anonymous": false,
      "inputs": [
        {
          "indexed": true,
          "internalType": "address",
          "name": "previousOwner",
          "type": "address"
        },
        {
          "indexed": true,
          "internalType": "address",
          "name": "newOwner",
          "type": "address"
        }
      ],
      "name": "OwnershipTransferred",
      "type": "event"
    },
    {
      "inputs": [
        {
          "internalType": "uint256",
          "name": "",
          "type": "uint256"
        }
      ],
      "name": "aTokens",
      "outputs": [
        {
          "internalType": "contract IERC20",
          "name": "",
          "type": "address"
        }
      ],
      "stateMutability": "view",
      "type": "function"
    },
    {
      "inputs": [],
      "name": "approve",
      "outputs": [],
      "stateMutability": "nonpayable",
      "type": "function"
    },
    {
      "inputs": [],
      "name": "balances",
      "outputs": [
        {
          "internalType": "uint256[]",
          "name": "",
          "type": "uint256[]"
        },
        {
          "internalType": "address[]",
          "name": "",
          "type": "address[]"
        }
      ],
      "stateMutability": "view",
      "type": "function"
    },
    {
      "inputs": [],
      "name": "collect",
      "outputs": [
        {
          "internalType": "uint256[]",
          "name": "",
          "type": "uint256[]"
        }
      ],
      "stateMutability": "nonpayable",
      "type": "function"
    },
    {
      "inputs": [],
      "name": "collector",
      "outputs": [
        {
          "internalType": "address",
          "name": "",
          "type": "address"
        }
      ],
      "stateMutability": "view",
      "type": "function"
    },
    {
      "inputs": [],
      "name": "dataProvider",
      "outputs": [
        {
          "internalType": "contract IPoolDataProvider",
          "name": "",
          "type": "address"
        }
      ],
      "stateMutability": "view",
      "type": "function"
    },
    {
      "inputs": [
        {
          "internalType": "bytes",
          "name": "data",
          "type": "bytes"
        }
      ],
      "name": "execute",
      "outputs": [],
      "stateMutability": "nonpayable",
      "type": "function"
    },
    {
      "inputs": [],
      "name": "gelatoooooo",
      "outputs": [
        {
          "internalType": "address",
          "name": "",
          "type": "address"
        }
      ],
      "stateMutability": "view",
      "type": "function"
    },
    {
      "inputs": [
        {
          "internalType": "contract IPoolAddressesProvider",
          "name": "_provider",
          "type": "address"
        },
        {
          "internalType": "address",
          "name": "_collector",
          "type": "address"
        },
        {
          "internalType": "address",
          "name": "_wethOrTargetAsset",
          "type": "address"
        },
        {
          "internalType": "address",
          "name": "_odos",
          "type": "address"
        },
        {
          "internalType": "address[]",
          "name": "_tokens",
          "type": "address[]"
        },
        {
          "internalType": "address",
          "name": "_gelatoooooo",
          "type": "address"
        },
        {
          "internalType": "address",
          "name": "_owner",
          "type": "address"
        }
      ],
      "name": "initialize",
      "outputs": [],
      "stateMutability": "nonpayable",
      "type": "function"
    },
    {
      "inputs": [],
      "name": "odos",
      "outputs": [
        {
          "internalType": "address",
          "name": "",
          "type": "address"
        }
      ],
      "stateMutability": "view",
      "type": "function"
    },
    {
      "inputs": [],
      "name": "owner",
      "outputs": [
        {
          "internalType": "address",
          "name": "",
          "type": "address"
        }
      ],
      "stateMutability": "view",
      "type": "function"
    },
    {
      "inputs": [],
      "name": "pool",
      "outputs": [
        {
          "internalType": "contract IPool",
          "name": "",
          "type": "address"
        }
      ],
      "stateMutability": "view",
      "type": "function"
    },
    {
      "inputs": [
        {
          "internalType": "contract IERC20",
          "name": "token",
          "type": "address"
        }
      ],
      "name": "refund",
      "outputs": [],
      "stateMutability": "nonpayable",
      "type": "function"
    },
    {
      "inputs": [],
      "name": "renounceOwnership",
      "outputs": [],
      "stateMutability": "nonpayable",
      "type": "function"
    },
    {
      "inputs": [
        {
          "internalType": "address",
          "name": "_treasury",
          "type": "address"
        },
        {
          "internalType": "address",
          "name": "_zaiStaker",
          "type": "address"
        },
        {
          "internalType": "address",
          "name": "_zlpStaker",
          "type": "address"
        }
      ],
      "name": "setAddresses",
      "outputs": [],
      "stateMutability": "nonpayable",
      "type": "function"
    },
    {
      "inputs": [
        {
          "internalType": "address",
          "name": "_gelatoooooo",
          "type": "address"
        }
      ],
      "name": "setGelatoooooo",
      "outputs": [],
      "stateMutability": "nonpayable",
      "type": "function"
    },
    {
      "inputs": [
        {
          "internalType": "address",
          "name": "_odos",
          "type": "address"
        }
      ],
      "name": "setOdos",
      "outputs": [],
      "stateMutability": "nonpayable",
      "type": "function"
    },
    {
      "inputs": [
        {
          "internalType": "uint256",
          "name": "_treasuryPercentage",
          "type": "uint256"
        },
        {
          "internalType": "uint256",
          "name": "_zaiPercentage",
          "type": "uint256"
        }
      ],
      "name": "setPercentages",
      "outputs": [],
      "stateMutability": "nonpayable",
      "type": "function"
    },
    {
      "inputs": [
        {
          "internalType": "address[]",
          "name": "_tokens",
          "type": "address[]"
        }
      ],
      "name": "setTokens",
      "outputs": [],
      "stateMutability": "nonpayable",
      "type": "function"
    },
    {
      "inputs": [
        {
          "internalType": "uint256",
          "name": "",
          "type": "uint256"
        }
      ],
      "name": "tokens",
      "outputs": [
        {
          "internalType": "address",
          "name": "",
          "type": "address"
        }
      ],
      "stateMutability": "view",
      "type": "function"
    },
    {
      "inputs": [
        {
          "internalType": "address",
          "name": "newOwner",
          "type": "address"
        }
      ],
      "name": "transferOwnership",
      "outputs": [],
      "stateMutability": "nonpayable",
      "type": "function"
    },
    {
      "inputs": [],
      "name": "treasury",
      "outputs": [
        {
          "internalType": "address",
          "name": "",
          "type": "address"
        }
      ],
      "stateMutability": "view",
      "type": "function"
    },
    {
      "inputs": [],
      "name": "treasuryPercentage",
      "outputs": [
        {
          "internalType": "uint256",
          "name": "",
          "type": "uint256"
        }
      ],
      "stateMutability": "view",
      "type": "function"
    },
    {
      "inputs": [],
      "name": "wethOrTargetAsset",
      "outputs": [
        {
          "internalType": "contract IWETH",
          "name": "",
          "type": "address"
        }
      ],
      "stateMutability": "view",
      "type": "function"
    },
    {
      "inputs": [],
      "name": "zaiPercentage",
      "outputs": [
        {
          "internalType": "uint256",
          "name": "",
          "type": "uint256"
        }
      ],
      "stateMutability": "view",
      "type": "function"
    },
    {
      "inputs": [],
      "name": "zaiStaker",
      "outputs": [
        {
          "internalType": "contract IStaker",
          "name": "",
          "type": "address"
        }
      ],
      "stateMutability": "view",
      "type": "function"
    },
    {
      "inputs": [],
      "name": "zlpStaker",
      "outputs": [
        {
          "internalType": "contract IStaker",
          "name": "",
          "type": "address"
        }
      ],
      "stateMutability": "view",
      "type": "function"
    },
    {
      "stateMutability": "payable",
      "type": "receive"
    }
  ],
  "transactionHash": "0x639393894803c4410feb8748de381b601351db3d65d736c8fc9bc4081bcc4ebe",
  "args": [],
  "numDeployments": 1,
  "solcInputHash": "5e753b9283da3f4cdd697485c0fbd0a9",
  "bytecode": "0x608060405234801561001057600080fd5b50613250806100206000396000f3fe6080604052600436106101a05760003560e01c8063715018a6116100ec578063b334ed861161008a578063f2fde38b11610064578063f2fde38b146105f8578063f615fd1b14610621578063f86832d51461064a578063fa89401a1461067557610225565b8063b334ed8614610579578063bd2ec8c5146105a4578063e5225381146105cd57610225565b80638ba7023b116100c65780638ba7023b146104cf5780638da5cb5b146104f8578063913e77ad14610523578063969920661461054e57610225565b8063715018a6146104615780637ab56083146104785780637bb98a68146104a357610225565b806338cb56bf116101595780635729be30116101335780635729be30146103b957806361d027b3146103e4578063625adaf21461040f5780636ba1644b1461043857610225565b806338cb56bf146103265780634f64b2be14610351578063553fb4b51461038e57610225565b806309c5eabe1461022a57806312424e3f1461025357806316f0115b1461026a5780631eba02ec14610295578063324e4b57146102c0578063363bf964146102fd57610225565b3661022557600760009054906101000a900473ffffffffffffffffffffffffffffffffffffffff1673ffffffffffffffffffffffffffffffffffffffff1663d0e30db0346040518263ffffffff1660e01b81526004016000604051808303818588803b15801561020f57600080fd5b505af1158015610223573d6000803e3d6000fd5b005b600080fd5b34801561023657600080fd5b50610251600480360381019061024c9190612410565b61069e565b005b34801561025f57600080fd5b50610268610b58565b005b34801561027657600080fd5b5061027f610c7d565b60405161028c91906124d8565b60405180910390f35b3480156102a157600080fd5b506102aa610ca3565b6040516102b79190612514565b60405180910390f35b3480156102cc57600080fd5b506102e760048036038101906102e29190612565565b610cc9565b6040516102f491906125b3565b60405180910390f35b34801561030957600080fd5b50610324600480360381019061031f91906125fa565b610d08565b005b34801561033257600080fd5b5061033b610dd8565b604051610348919061266e565b60405180910390f35b34801561035d57600080fd5b5061037860048036038101906103739190612565565b610dfe565b6040516103859190612514565b60405180910390f35b34801561039a57600080fd5b506103a3610e3d565b6040516103b09190612698565b60405180910390f35b3480156103c557600080fd5b506103ce610e43565b6040516103db91906126d4565b60405180910390f35b3480156103f057600080fd5b506103f9610e69565b6040516104069190612514565b60405180910390f35b34801561041b57600080fd5b50610436600480360381019061043191906127b7565b610e8f565b005b34801561044457600080fd5b5061045f600480360381019061045a9190612800565b611042565b005b34801561046d57600080fd5b5061047661108e565b005b34801561048457600080fd5b5061048d6110a2565b60405161049a9190612698565b60405180910390f35b3480156104af57600080fd5b506104b86110a8565b6040516104c69291906129a9565b60405180910390f35b3480156104db57600080fd5b506104f660048036038101906104f19190612800565b61128c565b005b34801561050457600080fd5b5061050d6112d8565b60405161051a9190612514565b60405180910390f35b34801561052f57600080fd5b50610538611310565b6040516105459190612514565b60405180910390f35b34801561055a57600080fd5b50610563611334565b6040516105709190612514565b60405180910390f35b34801561058557600080fd5b5061058e61135a565b60405161059b9190612a01565b60405180910390f35b3480156105b057600080fd5b506105cb60048036038101906105c69190612a1c565b611380565b005b3480156105d957600080fd5b506105e261139a565b6040516105ef9190612a5c565b60405180910390f35b34801561060457600080fd5b5061061f600480360381019061061a9190612800565b6117ed565b005b34801561062d57600080fd5b5061064860048036038101906106439190612abc565b611873565b005b34801561065657600080fd5b5061065f6119b7565b60405161066c919061266e565b60405180910390f35b34801561068157600080fd5b5061069c60048036038101906106979190612bb8565b6119dd565b005b6106a781611ae0565b6000600760009054906101000a900473ffffffffffffffffffffffffffffffffffffffff1673ffffffffffffffffffffffffffffffffffffffff166370a08231306040518263ffffffff1660e01b81526004016107049190612514565b602060405180830381865afa158015610721573d6000803e3d6000fd5b505050506040513d601f19601f820116820180604052508101906107459190612bfa565b90506000670de0b6b3a7640000600854836107609190612c56565b61076a9190612cc7565b9050600081111561083957600760009054906101000a900473ffffffffffffffffffffffffffffffffffffffff1673ffffffffffffffffffffffffffffffffffffffff1663a9059cbb600a60009054906101000a900473ffffffffffffffffffffffffffffffffffffffff16836040518363ffffffff1660e01b81526004016107f4929190612cf8565b6020604051808303816000875af1158015610813573d6000803e3d6000fd5b505050506040513d601f19601f820116820180604052508101906108379190612d59565b505b6000670de0b6b3a7640000600954846108529190612c56565b61085c9190612cc7565b905060008111156109dc57600760009054906101000a900473ffffffffffffffffffffffffffffffffffffffff1673ffffffffffffffffffffffffffffffffffffffff1663095ea7b3600b60009054906101000a900473ffffffffffffffffffffffffffffffffffffffff16836040518363ffffffff1660e01b81526004016108e6929190612cf8565b6020604051808303816000875af1158015610905573d6000803e3d6000fd5b505050506040513d601f19601f820116820180604052508101906109299190612d59565b50600b60009054906101000a900473ffffffffffffffffffffffffffffffffffffffff1673ffffffffffffffffffffffffffffffffffffffff1663b66503cf600760009054906101000a900473ffffffffffffffffffffffffffffffffffffffff16836040518363ffffffff1660e01b81526004016109a9929190612d86565b600060405180830381600087803b1580156109c357600080fd5b505af11580156109d7573d6000803e3d6000fd5b505050505b60008183856109eb9190612daf565b6109f59190612daf565b90506000811115610b5157600760009054906101000a900473ffffffffffffffffffffffffffffffffffffffff1673ffffffffffffffffffffffffffffffffffffffff1663095ea7b3600c60009054906101000a900473ffffffffffffffffffffffffffffffffffffffff16836040518363ffffffff1660e01b8152600401610a7f929190612cf8565b6020604051808303816000875af1158015610a9e573d6000803e3d6000fd5b505050506040513d601f19601f82011682018060405250810190610ac29190612d59565b50600c60009054906101000a900473ffffffffffffffffffffffffffffffffffffffff1673ffffffffffffffffffffffffffffffffffffffff16633c6b16ab826040518263ffffffff1660e01b8152600401610b1e9190612698565b600060405180830381600087803b158015610b3857600080fd5b505af1158015610b4c573d6000803e3d6000fd5b505050505b5050505050565b60005b600380549050811015610c7a5760038181548110610b7c57610b7b612de3565b5b9060005260206000200160009054906101000a900473ffffffffffffffffffffffffffffffffffffffff1673ffffffffffffffffffffffffffffffffffffffff1663095ea7b3600260009054906101000a900473ffffffffffffffffffffffffffffffffffffffff167fffffffffffffffffffffffffffffffffffffffffffffffffffffffffffffffff6040518363ffffffff1660e01b8152600401610c23929190612cf8565b6020604051808303816000875af1158015610c42573d6000803e3d6000fd5b505050506040513d601f19601f82011682018060405250810190610c669190612d59565b508080610c7290612e12565b915050610b5b565b50565b600560009054906101000a900473ffffffffffffffffffffffffffffffffffffffff1681565b600260009054906101000a900473ffffffffffffffffffffffffffffffffffffffff1681565b60048181548110610cd957600080fd5b906000526020600020016000915054906101000a900473ffffffffffffffffffffffffffffffffffffffff1681565b610d10611c88565b82600a60006101000a81548173ffffffffffffffffffffffffffffffffffffffff021916908373ffffffffffffffffffffffffffffffffffffffff16021790555081600b60006101000a81548173ffffffffffffffffffffffffffffffffffffffff021916908373ffffffffffffffffffffffffffffffffffffffff16021790555080600c60006101000a81548173ffffffffffffffffffffffffffffffffffffffff021916908373ffffffffffffffffffffffffffffffffffffffff160217905550505050565b600c60009054906101000a900473ffffffffffffffffffffffffffffffffffffffff1681565b60038181548110610e0e57600080fd5b906000526020600020016000915054906101000a900473ffffffffffffffffffffffffffffffffffffffff1681565b60095481565b600760009054906101000a900473ffffffffffffffffffffffffffffffffffffffff1681565b600a60009054906101000a900473ffffffffffffffffffffffffffffffffffffffff1681565b610e97611c88565b8060039080519060200190610ead929190612185565b506000815167ffffffffffffffff811115610ecb57610eca6122e5565b5b604051908082528060200260200182016040528015610ef95781602001602082028036833780820191505090505b50905060005b8251811015611026576000600660009054906101000a900473ffffffffffffffffffffffffffffffffffffffff1673ffffffffffffffffffffffffffffffffffffffff1663d2493b6c858481518110610f5b57610f5a612de3565b5b60200260200101516040518263ffffffff1660e01b8152600401610f7f9190612514565b606060405180830381865afa158015610f9c573d6000803e3d6000fd5b505050506040513d601f19601f82011682018060405250810190610fc09190612e6f565b5050905080838381518110610fd857610fd7612de3565b5b602002602001019073ffffffffffffffffffffffffffffffffffffffff16908173ffffffffffffffffffffffffffffffffffffffff168152505050808061101e90612e12565b915050610eff565b50806004908051906020019061103d92919061220f565b505050565b61104a611c88565b80600160006101000a81548173ffffffffffffffffffffffffffffffffffffffff021916908373ffffffffffffffffffffffffffffffffffffffff16021790555050565b611096611c88565b6110a06000611d0f565b565b60085481565b606080600060038054905067ffffffffffffffff8111156110cc576110cb6122e5565b5b6040519080825280602002602001820160405280156110fa5781602001602082028036833780820191505090505b50905060005b6003805490508110156111f7576003818154811061112157611120612de3565b5b9060005260206000200160009054906101000a900473ffffffffffffffffffffffffffffffffffffffff1673ffffffffffffffffffffffffffffffffffffffff166370a08231306040518263ffffffff1660e01b81526004016111849190612514565b602060405180830381865afa1580156111a1573d6000803e3d6000fd5b505050506040513d601f19601f820116820180604052508101906111c59190612bfa565b8282815181106111d8576111d7612de3565b5b60200260200101818152505080806111ef90612e12565b915050611100565b508060038080548060200260200160405190810160405280929190818152602001828054801561127c57602002820191906000526020600020905b8160009054906101000a900473ffffffffffffffffffffffffffffffffffffffff1673ffffffffffffffffffffffffffffffffffffffff1681526020019060010190808311611232575b5050505050905092509250509091565b611294611c88565b80600260006101000a81548173ffffffffffffffffffffffffffffffffffffffff021916908373ffffffffffffffffffffffffffffffffffffffff16021790555050565b6000806112e3611de6565b90508060000160009054906101000a900473ffffffffffffffffffffffffffffffffffffffff1691505090565b60008054906101000a900473ffffffffffffffffffffffffffffffffffffffff1681565b600160009054906101000a900473ffffffffffffffffffffffffffffffffffffffff1681565b600660009054906101000a900473ffffffffffffffffffffffffffffffffffffffff1681565b611388611c88565b81600881905550806009819055505050565b6060600560009054906101000a900473ffffffffffffffffffffffffffffffffffffffff1673ffffffffffffffffffffffffffffffffffffffff16639cd1999660036040518263ffffffff1660e01b81526004016113f89190612fae565b600060405180830381600087803b15801561141257600080fd5b505af1158015611426573d6000803e3d6000fd5b50505050600060038054905067ffffffffffffffff81111561144b5761144a6122e5565b5b6040519080825280602002602001820160405280156114795781602001602082028036833780820191505090505b50905060005b6003805490508110156117e5576000600482815481106114a2576114a1612de3565b5b9060005260206000200160009054906101000a900473ffffffffffffffffffffffffffffffffffffffff16905060008173ffffffffffffffffffffffffffffffffffffffff166370a0823160008054906101000a900473ffffffffffffffffffffffffffffffffffffffff166040518263ffffffff1660e01b815260040161152a9190612514565b602060405180830381865afa158015611547573d6000803e3d6000fd5b505050506040513d601f19601f8201168201806040525081019061156b9190612bfa565b905060008111156117d0578173ffffffffffffffffffffffffffffffffffffffff166323b872dd60008054906101000a900473ffffffffffffffffffffffffffffffffffffffff1630846040518463ffffffff1660e01b81526004016115d393929190612fd0565b6020604051808303816000875af11580156115f2573d6000803e3d6000fd5b505050506040513d601f19601f820116820180604052508101906116169190612d59565b50600560009054906101000a900473ffffffffffffffffffffffffffffffffffffffff1673ffffffffffffffffffffffffffffffffffffffff166369328dec6003858154811061166957611668612de3565b5b9060005260206000200160009054906101000a900473ffffffffffffffffffffffffffffffffffffffff1683306040518463ffffffff1660e01b81526004016116b493929190613007565b6020604051808303816000875af11580156116d3573d6000803e3d6000fd5b505050506040513d601f19601f820116820180604052508101906116f79190612bfa565b506003838154811061170c5761170b612de3565b5b9060005260206000200160009054906101000a900473ffffffffffffffffffffffffffffffffffffffff1673ffffffffffffffffffffffffffffffffffffffff166370a08231306040518263ffffffff1660e01b815260040161176f9190612514565b602060405180830381865afa15801561178c573d6000803e3d6000fd5b505050506040513d601f19601f820116820180604052508101906117b09190612bfa565b8484815181106117c3576117c2612de3565b5b6020026020010181815250505b505080806117dd90612e12565b91505061147f565b508091505090565b6117f5611c88565b600073ffffffffffffffffffffffffffffffffffffffff168173ffffffffffffffffffffffffffffffffffffffff16036118675760006040517f1e4fbdf700000000000000000000000000000000000000000000000000000000815260040161185e9190612514565b60405180910390fd5b61187081611d0f565b50565b6002600061187f611e0e565b90508060000160089054906101000a900460ff16806118ca57508167ffffffffffffffff168160000160009054906101000a900467ffffffffffffffff1667ffffffffffffffff1610155b15611901576040517ff92ee8a900000000000000000000000000000000000000000000000000000000815260040160405180910390fd5b818160000160006101000a81548167ffffffffffffffff021916908367ffffffffffffffff16021790555060018160000160086101000a81548160ff02191690831515021790555061195889898989898989611e36565b60008160000160086101000a81548160ff0219169083151502179055507fc7f505b2f371ae2175ee4913f4499e1f2633a7b5936321eed1cdaeb6115181d2826040516119a49190613061565b60405180910390a1505050505050505050565b600b60009054906101000a900473ffffffffffffffffffffffffffffffffffffffff1681565b6119e5611c88565b8073ffffffffffffffffffffffffffffffffffffffff1663a9059cbb338373ffffffffffffffffffffffffffffffffffffffff166370a08231306040518263ffffffff1660e01b8152600401611a3b9190612514565b602060405180830381865afa158015611a58573d6000803e3d6000fd5b505050506040513d601f19601f82011682018060405250810190611a7c9190612bfa565b6040518363ffffffff1660e01b8152600401611a99929190612cf8565b6020604051808303816000875af1158015611ab8573d6000803e3d6000fd5b505050506040513d601f19601f82011682018060405250810190611adc9190612d59565b5050565b611ae86112d8565b73ffffffffffffffffffffffffffffffffffffffff163373ffffffffffffffffffffffffffffffffffffffff161480611b6e5750600160009054906101000a900473ffffffffffffffffffffffffffffffffffffffff1673ffffffffffffffffffffffffffffffffffffffff163373ffffffffffffffffffffffffffffffffffffffff16145b611bad576040517f08c379a0000000000000000000000000000000000000000000000000000000008152600401611ba4906130d9565b60405180910390fd5b611bb5610b58565b6000600260009054906101000a900473ffffffffffffffffffffffffffffffffffffffff1673ffffffffffffffffffffffffffffffffffffffff1682604051611bfe919061316a565b6000604051808303816000865af19150503d8060008114611c3b576040519150601f19603f3d011682016040523d82523d6000602084013e611c40565b606091505b5050905080611c84576040517f08c379a0000000000000000000000000000000000000000000000000000000008152600401611c7b906131cd565b60405180910390fd5b5050565b611c90612083565b73ffffffffffffffffffffffffffffffffffffffff16611cae6112d8565b73ffffffffffffffffffffffffffffffffffffffff1614611d0d57611cd1612083565b6040517f118cdaa7000000000000000000000000000000000000000000000000000000008152600401611d049190612514565b60405180910390fd5b565b6000611d19611de6565b905060008160000160009054906101000a900473ffffffffffffffffffffffffffffffffffffffff169050828260000160006101000a81548173ffffffffffffffffffffffffffffffffffffffff021916908373ffffffffffffffffffffffffffffffffffffffff1602179055508273ffffffffffffffffffffffffffffffffffffffff168173ffffffffffffffffffffffffffffffffffffffff167f8be0079c531659141344cd1fd0a4f28419497f9722a3daafe3b4186f6b6457e060405160405180910390a3505050565b60007f9016d09d72d40fdae2fd8ceac6b6234c7706214fd39c1cd1e609a0528c199300905090565b60007ff0c57e16840df040f15088dc2f81fe391c3923bec73e23a9662efc9c229c6a00905090565b611e3f3361208b565b856000806101000a81548173ffffffffffffffffffffffffffffffffffffffff021916908373ffffffffffffffffffffffffffffffffffffffff16021790555084600760006101000a81548173ffffffffffffffffffffffffffffffffffffffff021916908373ffffffffffffffffffffffffffffffffffffffff1602179055508673ffffffffffffffffffffffffffffffffffffffff1663026b1d5f6040518163ffffffff1660e01b8152600401602060405180830381865afa158015611f0b573d6000803e3d6000fd5b505050506040513d601f19601f82011682018060405250810190611f2f91906131ed565b600560006101000a81548173ffffffffffffffffffffffffffffffffffffffff021916908373ffffffffffffffffffffffffffffffffffffffff16021790555081600160006101000a81548173ffffffffffffffffffffffffffffffffffffffff021916908373ffffffffffffffffffffffffffffffffffffffff1602179055508673ffffffffffffffffffffffffffffffffffffffff1663e860accb6040518163ffffffff1660e01b8152600401602060405180830381865afa158015611ffb573d6000803e3d6000fd5b505050506040513d601f19601f8201168201806040525081019061201f91906131ed565b600660006101000a81548173ffffffffffffffffffffffffffffffffffffffff021916908373ffffffffffffffffffffffffffffffffffffffff16021790555061206883610e8f565b6120718461128c565b61207a81611d0f565b50505050505050565b600033905090565b61209361209f565b61209c816120df565b50565b6120a7612165565b6120dd576040517fd7e6bcf800000000000000000000000000000000000000000000000000000000815260040160405180910390fd5b565b6120e761209f565b600073ffffffffffffffffffffffffffffffffffffffff168173ffffffffffffffffffffffffffffffffffffffff16036121595760006040517f1e4fbdf70000000000000000000000000000000000000000000000000000000081526004016121509190612514565b60405180910390fd5b61216281611d0f565b50565b600061216f611e0e565b60000160089054906101000a900460ff16905090565b8280548282559060005260206000209081019282156121fe579160200282015b828111156121fd5782518260006101000a81548173ffffffffffffffffffffffffffffffffffffffff021916908373ffffffffffffffffffffffffffffffffffffffff160217905550916020019190600101906121a5565b5b50905061220b9190612299565b5090565b828054828255906000526020600020908101928215612288579160200282015b828111156122875782518260006101000a81548173ffffffffffffffffffffffffffffffffffffffff021916908373ffffffffffffffffffffffffffffffffffffffff1602179055509160200191906001019061222f565b5b5090506122959190612299565b5090565b5b808211156122b257600081600090555060010161229a565b5090565b6000604051905090565b600080fd5b600080fd5b600080fd5b600080fd5b6000601f19601f8301169050919050565b7f4e487b7100000000000000000000000000000000000000000000000000000000600052604160045260246000fd5b61231d826122d4565b810181811067ffffffffffffffff8211171561233c5761233b6122e5565b5b80604052505050565b600061234f6122b6565b905061235b8282612314565b919050565b600067ffffffffffffffff82111561237b5761237a6122e5565b5b612384826122d4565b9050602081019050919050565b82818337600083830152505050565b60006123b36123ae84612360565b612345565b9050828152602081018484840111156123cf576123ce6122cf565b5b6123da848285612391565b509392505050565b600082601f8301126123f7576123f66122ca565b5b81356124078482602086016123a0565b91505092915050565b600060208284031215612426576124256122c0565b5b600082013567ffffffffffffffff811115612444576124436122c5565b5b612450848285016123e2565b91505092915050565b600073ffffffffffffffffffffffffffffffffffffffff82169050919050565b6000819050919050565b600061249e61249961249484612459565b612479565b612459565b9050919050565b60006124b082612483565b9050919050565b60006124c2826124a5565b9050919050565b6124d2816124b7565b82525050565b60006020820190506124ed60008301846124c9565b92915050565b60006124fe82612459565b9050919050565b61250e816124f3565b82525050565b60006020820190506125296000830184612505565b92915050565b6000819050919050565b6125428161252f565b811461254d57600080fd5b50565b60008135905061255f81612539565b92915050565b60006020828403121561257b5761257a6122c0565b5b600061258984828501612550565b91505092915050565b600061259d826124a5565b9050919050565b6125ad81612592565b82525050565b60006020820190506125c860008301846125a4565b92915050565b6125d7816124f3565b81146125e257600080fd5b50565b6000813590506125f4816125ce565b92915050565b600080600060608486031215612613576126126122c0565b5b6000612621868287016125e5565b9350506020612632868287016125e5565b9250506040612643868287016125e5565b9150509250925092565b6000612658826124a5565b9050919050565b6126688161264d565b82525050565b6000602082019050612683600083018461265f565b92915050565b6126928161252f565b82525050565b60006020820190506126ad6000830184612689565b92915050565b60006126be826124a5565b9050919050565b6126ce816126b3565b82525050565b60006020820190506126e960008301846126c5565b92915050565b600067ffffffffffffffff82111561270a576127096122e5565b5b602082029050602081019050919050565b600080fd5b600061273361272e846126ef565b612345565b905080838252602082019050602084028301858111156127565761275561271b565b5b835b8181101561277f578061276b88826125e5565b845260208401935050602081019050612758565b5050509392505050565b600082601f83011261279e5761279d6122ca565b5b81356127ae848260208601612720565b91505092915050565b6000602082840312156127cd576127cc6122c0565b5b600082013567ffffffffffffffff8111156127eb576127ea6122c5565b5b6127f784828501612789565b91505092915050565b600060208284031215612816576128156122c0565b5b6000612824848285016125e5565b91505092915050565b600081519050919050565b600082825260208201905092915050565b6000819050602082019050919050565b6128628161252f565b82525050565b60006128748383612859565b60208301905092915050565b6000602082019050919050565b60006128988261282d565b6128a28185612838565b93506128ad83612849565b8060005b838110156128de5781516128c58882612868565b97506128d083612880565b9250506001810190506128b1565b5085935050505092915050565b600081519050919050565b600082825260208201905092915050565b6000819050602082019050919050565b612920816124f3565b82525050565b60006129328383612917565b60208301905092915050565b6000602082019050919050565b6000612956826128eb565b61296081856128f6565b935061296b83612907565b8060005b8381101561299c5781516129838882612926565b975061298e8361293e565b92505060018101905061296f565b5085935050505092915050565b600060408201905081810360008301526129c3818561288d565b905081810360208301526129d7818461294b565b90509392505050565b60006129eb826124a5565b9050919050565b6129fb816129e0565b82525050565b6000602082019050612a1660008301846129f2565b92915050565b60008060408385031215612a3357612a326122c0565b5b6000612a4185828601612550565b9250506020612a5285828601612550565b9150509250929050565b60006020820190508181036000830152612a76818461288d565b905092915050565b6000612a89826124f3565b9050919050565b612a9981612a7e565b8114612aa457600080fd5b50565b600081359050612ab681612a90565b92915050565b600080600080600080600060e0888a031215612adb57612ada6122c0565b5b6000612ae98a828b01612aa7565b9750506020612afa8a828b016125e5565b9650506040612b0b8a828b016125e5565b9550506060612b1c8a828b016125e5565b945050608088013567ffffffffffffffff811115612b3d57612b3c6122c5565b5b612b498a828b01612789565b93505060a0612b5a8a828b016125e5565b92505060c0612b6b8a828b016125e5565b91505092959891949750929550565b6000612b85826124f3565b9050919050565b612b9581612b7a565b8114612ba057600080fd5b50565b600081359050612bb281612b8c565b92915050565b600060208284031215612bce57612bcd6122c0565b5b6000612bdc84828501612ba3565b91505092915050565b600081519050612bf481612539565b92915050565b600060208284031215612c1057612c0f6122c0565b5b6000612c1e84828501612be5565b91505092915050565b7f4e487b7100000000000000000000000000000000000000000000000000000000600052601160045260246000fd5b6000612c618261252f565b9150612c6c8361252f565b9250828202612c7a8161252f565b91508282048414831517612c9157612c90612c27565b5b5092915050565b7f4e487b7100000000000000000000000000000000000000000000000000000000600052601260045260246000fd5b6000612cd28261252f565b9150612cdd8361252f565b925082612ced57612cec612c98565b5b828204905092915050565b6000604082019050612d0d6000830185612505565b612d1a6020830184612689565b9392505050565b60008115159050919050565b612d3681612d21565b8114612d4157600080fd5b50565b600081519050612d5381612d2d565b92915050565b600060208284031215612d6f57612d6e6122c0565b5b6000612d7d84828501612d44565b91505092915050565b6000604082019050612d9b60008301856126c5565b612da86020830184612689565b9392505050565b6000612dba8261252f565b9150612dc58361252f565b9250828203905081811115612ddd57612ddc612c27565b5b92915050565b7f4e487b7100000000000000000000000000000000000000000000000000000000600052603260045260246000fd5b6000612e1d8261252f565b91507fffffffffffffffffffffffffffffffffffffffffffffffffffffffffffffffff8203612e4f57612e4e612c27565b5b600182019050919050565b600081519050612e69816125ce565b92915050565b600080600060608486031215612e8857612e876122c0565b5b6000612e9686828701612e5a565b9350506020612ea786828701612e5a565b9250506040612eb886828701612e5a565b9150509250925092565b600081549050919050565b60008190508160005260206000209050919050565b60008160001c9050919050565b600073ffffffffffffffffffffffffffffffffffffffff82169050919050565b6000612f22612f1d83612ee2565b612eef565b9050919050565b6000612f358254612f0f565b9050919050565b6000600182019050919050565b6000612f5482612ec2565b612f5e81856128f6565b9350612f6983612ecd565b8060005b83811015612fa157612f7e82612f29565b612f888882612926565b9750612f9383612f3c565b925050600181019050612f6d565b5085935050505092915050565b60006020820190508181036000830152612fc88184612f49565b905092915050565b6000606082019050612fe56000830186612505565b612ff26020830185612505565b612fff6040830184612689565b949350505050565b600060608201905061301c6000830186612505565b6130296020830185612689565b6130366040830184612505565b949350505050565b600067ffffffffffffffff82169050919050565b61305b8161303e565b82525050565b60006020820190506130766000830184613052565b92915050565b600082825260208201905092915050565b7f77686f206469733f000000000000000000000000000000000000000000000000600082015250565b60006130c360088361307c565b91506130ce8261308d565b602082019050919050565b600060208201905081810360008301526130f2816130b6565b9050919050565b600081519050919050565b600081905092915050565b60005b8381101561312d578082015181840152602081019050613112565b60008484015250505050565b6000613144826130f9565b61314e8185613104565b935061315e81856020860161310f565b80840191505092915050565b60006131768284613139565b915081905092915050565b7f6f646f732063616c6c206661696c656400000000000000000000000000000000600082015250565b60006131b760108361307c565b91506131c282613181565b602082019050919050565b600060208201905081810360008301526131e6816131aa565b9050919050565b600060208284031215613203576132026122c0565b5b600061321184828501612e5a565b9150509291505056fea2646970667358221220e228059ad6a0ff673547b8148e2dbc3277251287472a47bf4f9fd163acbbe07b64736f6c63430008140033",
  "devdoc": {
    "errors": {
      "InvalidInitialization()": [
        {
          "details": "The contract is already initialized."
        }
      ],
      "NotInitializing()": [
        {
          "details": "The contract is not initializing."
        }
      ],
      "OwnableInvalidOwner(address)": [
        {
          "details": "The owner is not a valid owner account. (eg. `address(0)`)"
        }
      ],
      "OwnableUnauthorizedAccount(address)": [
        {
          "details": "The caller account is not authorized to perform an operation."
        }
      ]
    },
    "events": {
      "Initialized(uint64)": {
        "details": "Triggered when the contract has been initialized or reinitialized."
      }
    },
    "kind": "dev",
    "methods": {
      "owner()": {
        "details": "Returns the address of the current owner."
      },
      "renounceOwnership()": {
        "details": "Leaves the contract without owner. It will not be possible to call `onlyOwner` functions. Can only be called by the current owner. NOTE: Renouncing ownership will leave the contract without an owner, thereby disabling any functionality that is only available to the owner."
      },
      "transferOwnership(address)": {
        "details": "Transfers ownership of the contract to a new account (`newOwner`). Can only be called by the current owner."
      }
    },
    "version": 1
  },
  "userdoc": {
    "kind": "user",
    "methods": {},
    "version": 1
  },
  "storageLayout": {
    "storage": [
      {
        "astId": 2263,
        "contract": "contracts/fees-claimer/FeesClaimerBase.sol:FeesClaimerBase",
        "label": "collector",
        "offset": 0,
        "slot": "0",
        "type": "t_address"
      },
      {
        "astId": 2265,
        "contract": "contracts/fees-claimer/FeesClaimerBase.sol:FeesClaimerBase",
        "label": "gelatoooooo",
        "offset": 0,
        "slot": "1",
        "type": "t_address"
      },
      {
        "astId": 2267,
        "contract": "contracts/fees-claimer/FeesClaimerBase.sol:FeesClaimerBase",
        "label": "odos",
        "offset": 0,
        "slot": "2",
        "type": "t_address"
      },
      {
        "astId": 2270,
        "contract": "contracts/fees-claimer/FeesClaimerBase.sol:FeesClaimerBase",
        "label": "tokens",
        "offset": 0,
        "slot": "3",
        "type": "t_array(t_address)dyn_storage"
      },
      {
        "astId": 2274,
        "contract": "contracts/fees-claimer/FeesClaimerBase.sol:FeesClaimerBase",
        "label": "aTokens",
        "offset": 0,
        "slot": "4",
        "type": "t_array(t_contract(IERC20)576)dyn_storage"
      },
      {
        "astId": 2277,
        "contract": "contracts/fees-claimer/FeesClaimerBase.sol:FeesClaimerBase",
        "label": "pool",
        "offset": 0,
        "slot": "5",
        "type": "t_contract(IPool)1230"
      },
      {
        "astId": 2280,
        "contract": "contracts/fees-claimer/FeesClaimerBase.sol:FeesClaimerBase",
        "label": "dataProvider",
        "offset": 0,
        "slot": "6",
        "type": "t_contract(IPoolDataProvider)1663"
      },
      {
        "astId": 2283,
        "contract": "contracts/fees-claimer/FeesClaimerBase.sol:FeesClaimerBase",
        "label": "wethOrTargetAsset",
        "offset": 0,
        "slot": "7",
        "type": "t_contract(IWETH)2243"
      },
      {
        "astId": 2028,
        "contract": "contracts/fees-claimer/FeesClaimerBase.sol:FeesClaimerBase",
        "label": "treasuryPercentage",
        "offset": 0,
        "slot": "8",
        "type": "t_uint256"
      },
      {
        "astId": 2030,
        "contract": "contracts/fees-claimer/FeesClaimerBase.sol:FeesClaimerBase",
        "label": "zaiPercentage",
        "offset": 0,
        "slot": "9",
        "type": "t_uint256"
      },
      {
        "astId": 2032,
        "contract": "contracts/fees-claimer/FeesClaimerBase.sol:FeesClaimerBase",
        "label": "treasury",
        "offset": 0,
        "slot": "10",
        "type": "t_address"
      },
      {
        "astId": 2035,
        "contract": "contracts/fees-claimer/FeesClaimerBase.sol:FeesClaimerBase",
        "label": "zaiStaker",
        "offset": 0,
        "slot": "11",
        "type": "t_contract(IStaker)2257"
      },
      {
        "astId": 2038,
        "contract": "contracts/fees-claimer/FeesClaimerBase.sol:FeesClaimerBase",
        "label": "zlpStaker",
        "offset": 0,
        "slot": "12",
        "type": "t_contract(IStaker)2257"
      }
    ],
    "types": {
      "t_address": {
        "encoding": "inplace",
        "label": "address",
        "numberOfBytes": "20"
      },
      "t_array(t_address)dyn_storage": {
        "base": "t_address",
        "encoding": "dynamic_array",
        "label": "address[]",
        "numberOfBytes": "32"
      },
      "t_array(t_contract(IERC20)576)dyn_storage": {
        "base": "t_contract(IERC20)576",
        "encoding": "dynamic_array",
        "label": "contract IERC20[]",
        "numberOfBytes": "32"
      },
      "t_contract(IERC20)576": {
        "encoding": "inplace",
        "label": "contract IERC20",
        "numberOfBytes": "20"
      },
      "t_contract(IPool)1230": {
        "encoding": "inplace",
        "label": "contract IPool",
        "numberOfBytes": "20"
      },
      "t_contract(IPoolDataProvider)1663": {
        "encoding": "inplace",
        "label": "contract IPoolDataProvider",
        "numberOfBytes": "20"
      },
      "t_contract(IStaker)2257": {
        "encoding": "inplace",
        "label": "contract IStaker",
        "numberOfBytes": "20"
      },
      "t_contract(IWETH)2243": {
        "encoding": "inplace",
        "label": "contract IWETH",
        "numberOfBytes": "20"
      },
      "t_uint256": {
        "encoding": "inplace",
        "label": "uint256",
        "numberOfBytes": "32"
      }
    }
  }
}