{
  "address": "0xd20CdA8e312EC8FCEce0fbc4c9396E6E1Cf71F03",
  "abi": [
    {
      "inputs": [],
      "name": "InvalidInitialization",
      "type": "error"
    },
    {
      "inputs": [],
      "name": "NotInitializing",
      "type": "error"
    },
    {
      "inputs": [
        {
          "internalType": "address",
          "name": "owner",
          "type": "address"
        }
      ],
      "name": "OwnableInvalidOwner",
      "type": "error"
    },
    {
      "inputs": [
        {
          "internalType": "address",
          "name": "account",
          "type": "address"
        }
      ],
      "name": "OwnableUnauthorizedAccount",
      "type": "error"
    },
    {
      "anonymous": false,
      "inputs": [
        {
          "indexed": false,
          "internalType": "uint64",
          "name": "version",
          "type": "uint64"
        }
      ],
      "name": "Initialized",
      "type": "event"
    },
    {
      "anonymous": false,
      "inputs": [
        {
          "indexed": true,
          "internalType": "address",
          "name": "previousOwner",
          "type": "address"
        },
        {
          "indexed": true,
          "internalType": "address",
          "name": "newOwner",
          "type": "address"
        }
      ],
      "name": "OwnershipTransferred",
      "type": "event"
    },
    {
      "inputs": [
        {
          "internalType": "uint256",
          "name": "",
          "type": "uint256"
        }
      ],
      "name": "aTokens",
      "outputs": [
        {
          "internalType": "contract IERC20",
          "name": "",
          "type": "address"
        }
      ],
      "stateMutability": "view",
      "type": "function"
    },
    {
      "inputs": [],
      "name": "approve",
      "outputs": [],
      "stateMutability": "nonpayable",
      "type": "function"
    },
    {
      "inputs": [],
      "name": "balances",
      "outputs": [
        {
          "internalType": "uint256[]",
          "name": "",
          "type": "uint256[]"
        },
        {
          "internalType": "address[]",
          "name": "",
          "type": "address[]"
        }
      ],
      "stateMutability": "view",
      "type": "function"
    },
    {
      "inputs": [],
      "name": "collect",
      "outputs": [
        {
          "internalType": "uint256[]",
          "name": "",
          "type": "uint256[]"
        }
      ],
      "stateMutability": "nonpayable",
      "type": "function"
    },
    {
      "inputs": [],
      "name": "collector",
      "outputs": [
        {
          "internalType": "address",
          "name": "",
          "type": "address"
        }
      ],
      "stateMutability": "view",
      "type": "function"
    },
    {
      "inputs": [],
      "name": "dataProvider",
      "outputs": [
        {
          "internalType": "contract IPoolDataProvider",
          "name": "",
          "type": "address"
        }
      ],
      "stateMutability": "view",
      "type": "function"
    },
    {
      "inputs": [
        {
          "internalType": "bytes",
          "name": "data",
          "type": "bytes"
        }
      ],
      "name": "execute",
      "outputs": [],
      "stateMutability": "nonpayable",
      "type": "function"
    },
    {
      "inputs": [],
      "name": "gelatoooooo",
      "outputs": [
        {
          "internalType": "address",
          "name": "",
          "type": "address"
        }
      ],
      "stateMutability": "view",
      "type": "function"
    },
    {
      "inputs": [
        {
          "internalType": "contract IPoolAddressesProvider",
          "name": "_provider",
          "type": "address"
        },
        {
          "internalType": "address",
          "name": "_collector",
          "type": "address"
        },
        {
          "internalType": "address",
          "name": "_wethOrTargetAsset",
          "type": "address"
        },
        {
          "internalType": "address",
          "name": "_odos",
          "type": "address"
        },
        {
          "internalType": "address[]",
          "name": "_tokens",
          "type": "address[]"
        },
        {
          "internalType": "address",
          "name": "_gelatoooooo",
          "type": "address"
        },
        {
          "internalType": "address",
          "name": "_owner",
          "type": "address"
        }
      ],
      "name": "initialize",
      "outputs": [],
      "stateMutability": "nonpayable",
      "type": "function"
    },
    {
      "inputs": [],
      "name": "odos",
      "outputs": [
        {
          "internalType": "address",
          "name": "",
          "type": "address"
        }
      ],
      "stateMutability": "view",
      "type": "function"
    },
    {
      "inputs": [],
      "name": "owner",
      "outputs": [
        {
          "internalType": "address",
          "name": "",
          "type": "address"
        }
      ],
      "stateMutability": "view",
      "type": "function"
    },
    {
      "inputs": [],
      "name": "pool",
      "outputs": [
        {
          "internalType": "contract IPool",
          "name": "",
          "type": "address"
        }
      ],
      "stateMutability": "view",
      "type": "function"
    },
    {
      "inputs": [
        {
          "internalType": "contract IERC20",
          "name": "token",
          "type": "address"
        }
      ],
      "name": "refund",
      "outputs": [],
      "stateMutability": "nonpayable",
      "type": "function"
    },
    {
      "inputs": [],
      "name": "renounceOwnership",
      "outputs": [],
      "stateMutability": "nonpayable",
      "type": "function"
    },
    {
      "inputs": [
        {
          "internalType": "address",
          "name": "_treasury",
          "type": "address"
        },
        {
          "internalType": "address",
          "name": "_zlpStaker",
          "type": "address"
        }
      ],
      "name": "setAddresses",
      "outputs": [],
      "stateMutability": "nonpayable",
      "type": "function"
    },
    {
      "inputs": [
        {
          "internalType": "address",
          "name": "_gelatoooooo",
          "type": "address"
        }
      ],
      "name": "setGelatoooooo",
      "outputs": [],
      "stateMutability": "nonpayable",
      "type": "function"
    },
    {
      "inputs": [
        {
          "internalType": "address",
          "name": "_odos",
          "type": "address"
        }
      ],
      "name": "setOdos",
      "outputs": [],
      "stateMutability": "nonpayable",
      "type": "function"
    },
    {
      "inputs": [
        {
          "internalType": "uint256",
          "name": "_treasuryPercentage",
          "type": "uint256"
        }
      ],
      "name": "setPercentages",
      "outputs": [],
      "stateMutability": "nonpayable",
      "type": "function"
    },
    {
      "inputs": [
        {
          "internalType": "address[]",
          "name": "_tokens",
          "type": "address[]"
        }
      ],
      "name": "setTokens",
      "outputs": [],
      "stateMutability": "nonpayable",
      "type": "function"
    },
    {
      "inputs": [
        {
          "internalType": "uint256",
          "name": "",
          "type": "uint256"
        }
      ],
      "name": "tokens",
      "outputs": [
        {
          "internalType": "address",
          "name": "",
          "type": "address"
        }
      ],
      "stateMutability": "view",
      "type": "function"
    },
    {
      "inputs": [
        {
          "internalType": "address",
          "name": "newOwner",
          "type": "address"
        }
      ],
      "name": "transferOwnership",
      "outputs": [],
      "stateMutability": "nonpayable",
      "type": "function"
    },
    {
      "inputs": [],
      "name": "treasury",
      "outputs": [
        {
          "internalType": "address",
          "name": "",
          "type": "address"
        }
      ],
      "stateMutability": "view",
      "type": "function"
    },
    {
      "inputs": [],
      "name": "treasuryPercentage",
      "outputs": [
        {
          "internalType": "uint256",
          "name": "",
          "type": "uint256"
        }
      ],
      "stateMutability": "view",
      "type": "function"
    },
    {
      "inputs": [],
      "name": "wethOrTargetAsset",
      "outputs": [
        {
          "internalType": "contract IWETH",
          "name": "",
          "type": "address"
        }
      ],
      "stateMutability": "view",
      "type": "function"
    },
    {
      "inputs": [],
      "name": "zlpStaker",
      "outputs": [
        {
          "internalType": "contract IStaker",
          "name": "",
          "type": "address"
        }
      ],
      "stateMutability": "view",
      "type": "function"
    },
    {
      "stateMutability": "payable",
      "type": "receive"
    }
  ],
  "transactionHash": "0xae83c29f2b21a9a0ebec33c3a1e5f1449fb2a3027969017ee5dfbf370cb369a7",
  "args": [],
  "numDeployments": 1,
  "solcInputHash": "989bc8062d2b192e9da2260a9d2cbb15",
  "bytecode": "0x608060405234801561001057600080fd5b50612eff806100206000396000f3fe60806040526004361061016a5760003560e01c8063715018a6116100d1578063913e77ad1161008a578063e522538111610064578063e52253811461056c578063f2fde38b14610597578063f615fd1b146105c0578063fa89401a146105e9576101ef565b8063913e77ad146104eb5780639699206614610516578063b334ed8614610541576101ef565b8063715018a6146104005780637ab56083146104175780637bb98a68146104425780638ba7023b1461046e5780638da5cb5b1461049757806390107afe146104c2576101ef565b806338cb56bf1161012357806338cb56bf146102f05780634f64b2be1461031b5780635729be301461035857806361d027b314610383578063625adaf2146103ae5780636ba1644b146103d7576101ef565b806309c5eabe146101f457806312424e3f1461021d57806316f0115b146102345780631e6d74331461025f5780631eba02ec14610288578063324e4b57146102b3576101ef565b366101ef57600760009054906101000a900473ffffffffffffffffffffffffffffffffffffffff1673ffffffffffffffffffffffffffffffffffffffff1663d0e30db0346040518263ffffffff1660e01b81526004016000604051808303818588803b1580156101d957600080fd5b505af11580156101ed573d6000803e3d6000fd5b005b600080fd5b34801561020057600080fd5b5061021b6004803603810190610216919061213b565b610612565b005b34801561022957600080fd5b506102326108f9565b005b34801561024057600080fd5b50610249610a1e565b6040516102569190612203565b60405180910390f35b34801561026b57600080fd5b5061028660048036038101906102819190612254565b610a44565b005b34801561029457600080fd5b5061029d610a56565b6040516102aa91906122a2565b60405180910390f35b3480156102bf57600080fd5b506102da60048036038101906102d59190612254565b610a7c565b6040516102e791906122de565b60405180910390f35b3480156102fc57600080fd5b50610305610abb565b604051610312919061231a565b60405180910390f35b34801561032757600080fd5b50610342600480360381019061033d9190612254565b610ae1565b60405161034f91906122a2565b60405180910390f35b34801561036457600080fd5b5061036d610b20565b60405161037a9190612356565b60405180910390f35b34801561038f57600080fd5b50610398610b46565b6040516103a591906122a2565b60405180910390f35b3480156103ba57600080fd5b506103d560048036038101906103d09190612465565b610b6c565b005b3480156103e357600080fd5b506103fe60048036038101906103f991906124ae565b610d1f565b005b34801561040c57600080fd5b50610415610d6b565b005b34801561042357600080fd5b5061042c610d7f565b60405161043991906124ea565b60405180910390f35b34801561044e57600080fd5b50610457610d85565b604051610465929190612681565b60405180910390f35b34801561047a57600080fd5b50610495600480360381019061049091906124ae565b610f69565b005b3480156104a357600080fd5b506104ac610fb5565b6040516104b991906122a2565b60405180910390f35b3480156104ce57600080fd5b506104e960048036038101906104e491906126b8565b610fed565b005b3480156104f757600080fd5b5061050061107b565b60405161050d91906122a2565b60405180910390f35b34801561052257600080fd5b5061052b61109f565b60405161053891906122a2565b60405180910390f35b34801561054d57600080fd5b506105566110c5565b6040516105639190612719565b60405180910390f35b34801561057857600080fd5b506105816110eb565b60405161058e9190612734565b60405180910390f35b3480156105a357600080fd5b506105be60048036038101906105b991906124ae565b61153e565b005b3480156105cc57600080fd5b506105e760048036038101906105e29190612794565b6115c4565b005b3480156105f557600080fd5b50610610600480360381019061060b9190612890565b611708565b005b61061b8161180b565b6000600760009054906101000a900473ffffffffffffffffffffffffffffffffffffffff1673ffffffffffffffffffffffffffffffffffffffff166370a08231306040518263ffffffff1660e01b815260040161067891906122a2565b602060405180830381865afa158015610695573d6000803e3d6000fd5b505050506040513d601f19601f820116820180604052508101906106b991906128d2565b90506000670de0b6b3a7640000600854836106d4919061292e565b6106de919061299f565b9050600760009054906101000a900473ffffffffffffffffffffffffffffffffffffffff1673ffffffffffffffffffffffffffffffffffffffff1663a9059cbb610726610fb5565b836040518363ffffffff1660e01b81526004016107449291906129d0565b6020604051808303816000875af1158015610763573d6000803e3d6000fd5b505050506040513d601f19601f820116820180604052508101906107879190612a31565b50600081836107969190612a5e565b9050600760009054906101000a900473ffffffffffffffffffffffffffffffffffffffff1673ffffffffffffffffffffffffffffffffffffffff1663095ea7b3600960009054906101000a900473ffffffffffffffffffffffffffffffffffffffff16836040518363ffffffff1660e01b81526004016108179291906129d0565b6020604051808303816000875af1158015610836573d6000803e3d6000fd5b505050506040513d601f19601f8201168201806040525081019061085a9190612a31565b50600960009054906101000a900473ffffffffffffffffffffffffffffffffffffffff1673ffffffffffffffffffffffffffffffffffffffff16633c6b16ab83856108a59190612a5e565b6040518263ffffffff1660e01b81526004016108c191906124ea565b600060405180830381600087803b1580156108db57600080fd5b505af11580156108ef573d6000803e3d6000fd5b5050505050505050565b60005b600380549050811015610a1b576003818154811061091d5761091c612a92565b5b9060005260206000200160009054906101000a900473ffffffffffffffffffffffffffffffffffffffff1673ffffffffffffffffffffffffffffffffffffffff1663095ea7b3600260009054906101000a900473ffffffffffffffffffffffffffffffffffffffff167fffffffffffffffffffffffffffffffffffffffffffffffffffffffffffffffff6040518363ffffffff1660e01b81526004016109c49291906129d0565b6020604051808303816000875af11580156109e3573d6000803e3d6000fd5b505050506040513d601f19601f82011682018060405250810190610a079190612a31565b508080610a1390612ac1565b9150506108fc565b50565b600560009054906101000a900473ffffffffffffffffffffffffffffffffffffffff1681565b610a4c6119b3565b8060088190555050565b600260009054906101000a900473ffffffffffffffffffffffffffffffffffffffff1681565b60048181548110610a8c57600080fd5b906000526020600020016000915054906101000a900473ffffffffffffffffffffffffffffffffffffffff1681565b600960009054906101000a900473ffffffffffffffffffffffffffffffffffffffff1681565b60038181548110610af157600080fd5b906000526020600020016000915054906101000a900473ffffffffffffffffffffffffffffffffffffffff1681565b600760009054906101000a900473ffffffffffffffffffffffffffffffffffffffff1681565b600a60009054906101000a900473ffffffffffffffffffffffffffffffffffffffff1681565b610b746119b3565b8060039080519060200190610b8a929190611eb0565b506000815167ffffffffffffffff811115610ba857610ba7612010565b5b604051908082528060200260200182016040528015610bd65781602001602082028036833780820191505090505b50905060005b8251811015610d03576000600660009054906101000a900473ffffffffffffffffffffffffffffffffffffffff1673ffffffffffffffffffffffffffffffffffffffff1663d2493b6c858481518110610c3857610c37612a92565b5b60200260200101516040518263ffffffff1660e01b8152600401610c5c91906122a2565b606060405180830381865afa158015610c79573d6000803e3d6000fd5b505050506040513d601f19601f82011682018060405250810190610c9d9190612b1e565b5050905080838381518110610cb557610cb4612a92565b5b602002602001019073ffffffffffffffffffffffffffffffffffffffff16908173ffffffffffffffffffffffffffffffffffffffff1681525050508080610cfb90612ac1565b915050610bdc565b508060049080519060200190610d1a929190611f3a565b505050565b610d276119b3565b80600160006101000a81548173ffffffffffffffffffffffffffffffffffffffff021916908373ffffffffffffffffffffffffffffffffffffffff16021790555050565b610d736119b3565b610d7d6000611a3a565b565b60085481565b606080600060038054905067ffffffffffffffff811115610da957610da8612010565b5b604051908082528060200260200182016040528015610dd75781602001602082028036833780820191505090505b50905060005b600380549050811015610ed45760038181548110610dfe57610dfd612a92565b5b9060005260206000200160009054906101000a900473ffffffffffffffffffffffffffffffffffffffff1673ffffffffffffffffffffffffffffffffffffffff166370a08231306040518263ffffffff1660e01b8152600401610e6191906122a2565b602060405180830381865afa158015610e7e573d6000803e3d6000fd5b505050506040513d601f19601f82011682018060405250810190610ea291906128d2565b828281518110610eb557610eb4612a92565b5b6020026020010181815250508080610ecc90612ac1565b915050610ddd565b5080600380805480602002602001604051908101604052809291908181526020018280548015610f5957602002820191906000526020600020905b8160009054906101000a900473ffffffffffffffffffffffffffffffffffffffff1673ffffffffffffffffffffffffffffffffffffffff1681526020019060010190808311610f0f575b5050505050905092509250509091565b610f716119b3565b80600260006101000a81548173ffffffffffffffffffffffffffffffffffffffff021916908373ffffffffffffffffffffffffffffffffffffffff16021790555050565b600080610fc0611b11565b90508060000160009054906101000a900473ffffffffffffffffffffffffffffffffffffffff1691505090565b610ff56119b3565b81600a60006101000a81548173ffffffffffffffffffffffffffffffffffffffff021916908373ffffffffffffffffffffffffffffffffffffffff16021790555080600960006101000a81548173ffffffffffffffffffffffffffffffffffffffff021916908373ffffffffffffffffffffffffffffffffffffffff1602179055505050565b60008054906101000a900473ffffffffffffffffffffffffffffffffffffffff1681565b600160009054906101000a900473ffffffffffffffffffffffffffffffffffffffff1681565b600660009054906101000a900473ffffffffffffffffffffffffffffffffffffffff1681565b6060600560009054906101000a900473ffffffffffffffffffffffffffffffffffffffff1673ffffffffffffffffffffffffffffffffffffffff16639cd1999660036040518263ffffffff1660e01b81526004016111499190612c5d565b600060405180830381600087803b15801561116357600080fd5b505af1158015611177573d6000803e3d6000fd5b50505050600060038054905067ffffffffffffffff81111561119c5761119b612010565b5b6040519080825280602002602001820160405280156111ca5781602001602082028036833780820191505090505b50905060005b600380549050811015611536576000600482815481106111f3576111f2612a92565b5b9060005260206000200160009054906101000a900473ffffffffffffffffffffffffffffffffffffffff16905060008173ffffffffffffffffffffffffffffffffffffffff166370a0823160008054906101000a900473ffffffffffffffffffffffffffffffffffffffff166040518263ffffffff1660e01b815260040161127b91906122a2565b602060405180830381865afa158015611298573d6000803e3d6000fd5b505050506040513d601f19601f820116820180604052508101906112bc91906128d2565b90506000811115611521578173ffffffffffffffffffffffffffffffffffffffff166323b872dd60008054906101000a900473ffffffffffffffffffffffffffffffffffffffff1630846040518463ffffffff1660e01b815260040161132493929190612c7f565b6020604051808303816000875af1158015611343573d6000803e3d6000fd5b505050506040513d601f19601f820116820180604052508101906113679190612a31565b50600560009054906101000a900473ffffffffffffffffffffffffffffffffffffffff1673ffffffffffffffffffffffffffffffffffffffff166369328dec600385815481106113ba576113b9612a92565b5b9060005260206000200160009054906101000a900473ffffffffffffffffffffffffffffffffffffffff1683306040518463ffffffff1660e01b815260040161140593929190612cb6565b6020604051808303816000875af1158015611424573d6000803e3d6000fd5b505050506040513d601f19601f8201168201806040525081019061144891906128d2565b506003838154811061145d5761145c612a92565b5b9060005260206000200160009054906101000a900473ffffffffffffffffffffffffffffffffffffffff1673ffffffffffffffffffffffffffffffffffffffff166370a08231306040518263ffffffff1660e01b81526004016114c091906122a2565b602060405180830381865afa1580156114dd573d6000803e3d6000fd5b505050506040513d601f19601f8201168201806040525081019061150191906128d2565b84848151811061151457611513612a92565b5b6020026020010181815250505b5050808061152e90612ac1565b9150506111d0565b508091505090565b6115466119b3565b600073ffffffffffffffffffffffffffffffffffffffff168173ffffffffffffffffffffffffffffffffffffffff16036115b85760006040517f1e4fbdf70000000000000000000000000000000000000000000000000000000081526004016115af91906122a2565b60405180910390fd5b6115c181611a3a565b50565b600760006115d0611b39565b90508060000160089054906101000a900460ff168061161b57508167ffffffffffffffff168160000160009054906101000a900467ffffffffffffffff1667ffffffffffffffff1610155b15611652576040517ff92ee8a900000000000000000000000000000000000000000000000000000000815260040160405180910390fd5b818160000160006101000a81548167ffffffffffffffff021916908367ffffffffffffffff16021790555060018160000160086101000a81548160ff0219169083151502179055506116a989898989898989611b61565b60008160000160086101000a81548160ff0219169083151502179055507fc7f505b2f371ae2175ee4913f4499e1f2633a7b5936321eed1cdaeb6115181d2826040516116f59190612d10565b60405180910390a1505050505050505050565b6117106119b3565b8073ffffffffffffffffffffffffffffffffffffffff1663a9059cbb338373ffffffffffffffffffffffffffffffffffffffff166370a08231306040518263ffffffff1660e01b815260040161176691906122a2565b602060405180830381865afa158015611783573d6000803e3d6000fd5b505050506040513d601f19601f820116820180604052508101906117a791906128d2565b6040518363ffffffff1660e01b81526004016117c49291906129d0565b6020604051808303816000875af11580156117e3573d6000803e3d6000fd5b505050506040513d601f19601f820116820180604052508101906118079190612a31565b5050565b611813610fb5565b73ffffffffffffffffffffffffffffffffffffffff163373ffffffffffffffffffffffffffffffffffffffff1614806118995750600160009054906101000a900473ffffffffffffffffffffffffffffffffffffffff1673ffffffffffffffffffffffffffffffffffffffff163373ffffffffffffffffffffffffffffffffffffffff16145b6118d8576040517f08c379a00000000000000000000000000000000000000000000000000000000081526004016118cf90612d88565b60405180910390fd5b6118e06108f9565b6000600260009054906101000a900473ffffffffffffffffffffffffffffffffffffffff1673ffffffffffffffffffffffffffffffffffffffff16826040516119299190612e19565b6000604051808303816000865af19150503d8060008114611966576040519150601f19603f3d011682016040523d82523d6000602084013e61196b565b606091505b50509050806119af576040517f08c379a00000000000000000000000000000000000000000000000000000000081526004016119a690612e7c565b60405180910390fd5b5050565b6119bb611dae565b73ffffffffffffffffffffffffffffffffffffffff166119d9610fb5565b73ffffffffffffffffffffffffffffffffffffffff1614611a38576119fc611dae565b6040517f118cdaa7000000000000000000000000000000000000000000000000000000008152600401611a2f91906122a2565b60405180910390fd5b565b6000611a44611b11565b905060008160000160009054906101000a900473ffffffffffffffffffffffffffffffffffffffff169050828260000160006101000a81548173ffffffffffffffffffffffffffffffffffffffff021916908373ffffffffffffffffffffffffffffffffffffffff1602179055508273ffffffffffffffffffffffffffffffffffffffff168173ffffffffffffffffffffffffffffffffffffffff167f8be0079c531659141344cd1fd0a4f28419497f9722a3daafe3b4186f6b6457e060405160405180910390a3505050565b60007f9016d09d72d40fdae2fd8ceac6b6234c7706214fd39c1cd1e609a0528c199300905090565b60007ff0c57e16840df040f15088dc2f81fe391c3923bec73e23a9662efc9c229c6a00905090565b611b6a33611db6565b856000806101000a81548173ffffffffffffffffffffffffffffffffffffffff021916908373ffffffffffffffffffffffffffffffffffffffff16021790555084600760006101000a81548173ffffffffffffffffffffffffffffffffffffffff021916908373ffffffffffffffffffffffffffffffffffffffff1602179055508673ffffffffffffffffffffffffffffffffffffffff1663026b1d5f6040518163ffffffff1660e01b8152600401602060405180830381865afa158015611c36573d6000803e3d6000fd5b505050506040513d601f19601f82011682018060405250810190611c5a9190612e9c565b600560006101000a81548173ffffffffffffffffffffffffffffffffffffffff021916908373ffffffffffffffffffffffffffffffffffffffff16021790555081600160006101000a81548173ffffffffffffffffffffffffffffffffffffffff021916908373ffffffffffffffffffffffffffffffffffffffff1602179055508673ffffffffffffffffffffffffffffffffffffffff1663e860accb6040518163ffffffff1660e01b8152600401602060405180830381865afa158015611d26573d6000803e3d6000fd5b505050506040513d601f19601f82011682018060405250810190611d4a9190612e9c565b600660006101000a81548173ffffffffffffffffffffffffffffffffffffffff021916908373ffffffffffffffffffffffffffffffffffffffff160217905550611d9383610b6c565b611d9c84610f69565b611da581611a3a565b50505050505050565b600033905090565b611dbe611dca565b611dc781611e0a565b50565b611dd2611e90565b611e08576040517fd7e6bcf800000000000000000000000000000000000000000000000000000000815260040160405180910390fd5b565b611e12611dca565b600073ffffffffffffffffffffffffffffffffffffffff168173ffffffffffffffffffffffffffffffffffffffff1603611e845760006040517f1e4fbdf7000000000000000000000000000000000000000000000000000000008152600401611e7b91906122a2565b60405180910390fd5b611e8d81611a3a565b50565b6000611e9a611b39565b60000160089054906101000a900460ff16905090565b828054828255906000526020600020908101928215611f29579160200282015b82811115611f285782518260006101000a81548173ffffffffffffffffffffffffffffffffffffffff021916908373ffffffffffffffffffffffffffffffffffffffff16021790555091602001919060010190611ed0565b5b509050611f369190611fc4565b5090565b828054828255906000526020600020908101928215611fb3579160200282015b82811115611fb25782518260006101000a81548173ffffffffffffffffffffffffffffffffffffffff021916908373ffffffffffffffffffffffffffffffffffffffff16021790555091602001919060010190611f5a565b5b509050611fc09190611fc4565b5090565b5b80821115611fdd576000816000905550600101611fc5565b5090565b6000604051905090565b600080fd5b600080fd5b600080fd5b600080fd5b6000601f19601f8301169050919050565b7f4e487b7100000000000000000000000000000000000000000000000000000000600052604160045260246000fd5b61204882611fff565b810181811067ffffffffffffffff8211171561206757612066612010565b5b80604052505050565b600061207a611fe1565b9050612086828261203f565b919050565b600067ffffffffffffffff8211156120a6576120a5612010565b5b6120af82611fff565b9050602081019050919050565b82818337600083830152505050565b60006120de6120d98461208b565b612070565b9050828152602081018484840111156120fa576120f9611ffa565b5b6121058482856120bc565b509392505050565b600082601f83011261212257612121611ff5565b5b81356121328482602086016120cb565b91505092915050565b60006020828403121561215157612150611feb565b5b600082013567ffffffffffffffff81111561216f5761216e611ff0565b5b61217b8482850161210d565b91505092915050565b600073ffffffffffffffffffffffffffffffffffffffff82169050919050565b6000819050919050565b60006121c96121c46121bf84612184565b6121a4565b612184565b9050919050565b60006121db826121ae565b9050919050565b60006121ed826121d0565b9050919050565b6121fd816121e2565b82525050565b600060208201905061221860008301846121f4565b92915050565b6000819050919050565b6122318161221e565b811461223c57600080fd5b50565b60008135905061224e81612228565b92915050565b60006020828403121561226a57612269611feb565b5b60006122788482850161223f565b91505092915050565b600061228c82612184565b9050919050565b61229c81612281565b82525050565b60006020820190506122b76000830184612293565b92915050565b60006122c8826121d0565b9050919050565b6122d8816122bd565b82525050565b60006020820190506122f360008301846122cf565b92915050565b6000612304826121d0565b9050919050565b612314816122f9565b82525050565b600060208201905061232f600083018461230b565b92915050565b6000612340826121d0565b9050919050565b61235081612335565b82525050565b600060208201905061236b6000830184612347565b92915050565b600067ffffffffffffffff82111561238c5761238b612010565b5b602082029050602081019050919050565b600080fd5b6123ab81612281565b81146123b657600080fd5b50565b6000813590506123c8816123a2565b92915050565b60006123e16123dc84612371565b612070565b905080838252602082019050602084028301858111156124045761240361239d565b5b835b8181101561242d578061241988826123b9565b845260208401935050602081019050612406565b5050509392505050565b600082601f83011261244c5761244b611ff5565b5b813561245c8482602086016123ce565b91505092915050565b60006020828403121561247b5761247a611feb565b5b600082013567ffffffffffffffff81111561249957612498611ff0565b5b6124a584828501612437565b91505092915050565b6000602082840312156124c4576124c3611feb565b5b60006124d2848285016123b9565b91505092915050565b6124e48161221e565b82525050565b60006020820190506124ff60008301846124db565b92915050565b600081519050919050565b600082825260208201905092915050565b6000819050602082019050919050565b61253a8161221e565b82525050565b600061254c8383612531565b60208301905092915050565b6000602082019050919050565b600061257082612505565b61257a8185612510565b935061258583612521565b8060005b838110156125b657815161259d8882612540565b97506125a883612558565b925050600181019050612589565b5085935050505092915050565b600081519050919050565b600082825260208201905092915050565b6000819050602082019050919050565b6125f881612281565b82525050565b600061260a83836125ef565b60208301905092915050565b6000602082019050919050565b600061262e826125c3565b61263881856125ce565b9350612643836125df565b8060005b8381101561267457815161265b88826125fe565b975061266683612616565b925050600181019050612647565b5085935050505092915050565b6000604082019050818103600083015261269b8185612565565b905081810360208301526126af8184612623565b90509392505050565b600080604083850312156126cf576126ce611feb565b5b60006126dd858286016123b9565b92505060206126ee858286016123b9565b9150509250929050565b6000612703826121d0565b9050919050565b612713816126f8565b82525050565b600060208201905061272e600083018461270a565b92915050565b6000602082019050818103600083015261274e8184612565565b905092915050565b600061276182612281565b9050919050565b61277181612756565b811461277c57600080fd5b50565b60008135905061278e81612768565b92915050565b600080600080600080600060e0888a0312156127b3576127b2611feb565b5b60006127c18a828b0161277f565b97505060206127d28a828b016123b9565b96505060406127e38a828b016123b9565b95505060606127f48a828b016123b9565b945050608088013567ffffffffffffffff81111561281557612814611ff0565b5b6128218a828b01612437565b93505060a06128328a828b016123b9565b92505060c06128438a828b016123b9565b91505092959891949750929550565b600061285d82612281565b9050919050565b61286d81612852565b811461287857600080fd5b50565b60008135905061288a81612864565b92915050565b6000602082840312156128a6576128a5611feb565b5b60006128b48482850161287b565b91505092915050565b6000815190506128cc81612228565b92915050565b6000602082840312156128e8576128e7611feb565b5b60006128f6848285016128bd565b91505092915050565b7f4e487b7100000000000000000000000000000000000000000000000000000000600052601160045260246000fd5b60006129398261221e565b91506129448361221e565b92508282026129528161221e565b91508282048414831517612969576129686128ff565b5b5092915050565b7f4e487b7100000000000000000000000000000000000000000000000000000000600052601260045260246000fd5b60006129aa8261221e565b91506129b58361221e565b9250826129c5576129c4612970565b5b828204905092915050565b60006040820190506129e56000830185612293565b6129f260208301846124db565b9392505050565b60008115159050919050565b612a0e816129f9565b8114612a1957600080fd5b50565b600081519050612a2b81612a05565b92915050565b600060208284031215612a4757612a46611feb565b5b6000612a5584828501612a1c565b91505092915050565b6000612a698261221e565b9150612a748361221e565b9250828203905081811115612a8c57612a8b6128ff565b5b92915050565b7f4e487b7100000000000000000000000000000000000000000000000000000000600052603260045260246000fd5b6000612acc8261221e565b91507fffffffffffffffffffffffffffffffffffffffffffffffffffffffffffffffff8203612afe57612afd6128ff565b5b600182019050919050565b600081519050612b18816123a2565b92915050565b600080600060608486031215612b3757612b36611feb565b5b6000612b4586828701612b09565b9350506020612b5686828701612b09565b9250506040612b6786828701612b09565b9150509250925092565b600081549050919050565b60008190508160005260206000209050919050565b60008160001c9050919050565b600073ffffffffffffffffffffffffffffffffffffffff82169050919050565b6000612bd1612bcc83612b91565b612b9e565b9050919050565b6000612be48254612bbe565b9050919050565b6000600182019050919050565b6000612c0382612b71565b612c0d81856125ce565b9350612c1883612b7c565b8060005b83811015612c5057612c2d82612bd8565b612c3788826125fe565b9750612c4283612beb565b925050600181019050612c1c565b5085935050505092915050565b60006020820190508181036000830152612c778184612bf8565b905092915050565b6000606082019050612c946000830186612293565b612ca16020830185612293565b612cae60408301846124db565b949350505050565b6000606082019050612ccb6000830186612293565b612cd860208301856124db565b612ce56040830184612293565b949350505050565b600067ffffffffffffffff82169050919050565b612d0a81612ced565b82525050565b6000602082019050612d256000830184612d01565b92915050565b600082825260208201905092915050565b7f77686f206469733f000000000000000000000000000000000000000000000000600082015250565b6000612d72600883612d2b565b9150612d7d82612d3c565b602082019050919050565b60006020820190508181036000830152612da181612d65565b9050919050565b600081519050919050565b600081905092915050565b60005b83811015612ddc578082015181840152602081019050612dc1565b60008484015250505050565b6000612df382612da8565b612dfd8185612db3565b9350612e0d818560208601612dbe565b80840191505092915050565b6000612e258284612de8565b915081905092915050565b7f6f646f732063616c6c206661696c656400000000000000000000000000000000600082015250565b6000612e66601083612d2b565b9150612e7182612e30565b602082019050919050565b60006020820190508181036000830152612e9581612e59565b9050919050565b600060208284031215612eb257612eb1611feb565b5b6000612ec084828501612b09565b9150509291505056fea2646970667358221220520b6f0982ac399a1d99bd40582160ef4c28cbacf455d291dc82d1026fe1638e64736f6c63430008140033",
  "devdoc": {
    "errors": {
      "InvalidInitialization()": [
        {
          "details": "The contract is already initialized."
        }
      ],
      "NotInitializing()": [
        {
          "details": "The contract is not initializing."
        }
      ],
      "OwnableInvalidOwner(address)": [
        {
          "details": "The owner is not a valid owner account. (eg. `address(0)`)"
        }
      ],
      "OwnableUnauthorizedAccount(address)": [
        {
          "details": "The caller account is not authorized to perform an operation."
        }
      ]
    },
    "events": {
      "Initialized(uint64)": {
        "details": "Triggered when the contract has been initialized or reinitialized."
      }
    },
    "kind": "dev",
    "methods": {
      "owner()": {
        "details": "Returns the address of the current owner."
      },
      "renounceOwnership()": {
        "details": "Leaves the contract without owner. It will not be possible to call `onlyOwner` functions. Can only be called by the current owner. NOTE: Renouncing ownership will leave the contract without an owner, thereby disabling any functionality that is only available to the owner."
      },
      "transferOwnership(address)": {
        "details": "Transfers ownership of the contract to a new account (`newOwner`). Can only be called by the current owner."
      }
    },
    "version": 1
  },
  "userdoc": {
    "kind": "user",
    "methods": {},
    "version": 1
  },
  "storageLayout": {
    "storage": [
      {
        "astId": 5457,
        "contract": "contracts/fees-claimer/FeesClaimerLinea.sol:FeesClaimerLinea",
        "label": "collector",
        "offset": 0,
        "slot": "0",
        "type": "t_address"
      },
      {
        "astId": 5459,
        "contract": "contracts/fees-claimer/FeesClaimerLinea.sol:FeesClaimerLinea",
        "label": "gelatoooooo",
        "offset": 0,
        "slot": "1",
        "type": "t_address"
      },
      {
        "astId": 5461,
        "contract": "contracts/fees-claimer/FeesClaimerLinea.sol:FeesClaimerLinea",
        "label": "odos",
        "offset": 0,
        "slot": "2",
        "type": "t_address"
      },
      {
        "astId": 5464,
        "contract": "contracts/fees-claimer/FeesClaimerLinea.sol:FeesClaimerLinea",
        "label": "tokens",
        "offset": 0,
        "slot": "3",
        "type": "t_array(t_address)dyn_storage"
      },
      {
        "astId": 5468,
        "contract": "contracts/fees-claimer/FeesClaimerLinea.sol:FeesClaimerLinea",
        "label": "aTokens",
        "offset": 0,
        "slot": "4",
        "type": "t_array(t_contract(IERC20)1862)dyn_storage"
      },
      {
        "astId": 5471,
        "contract": "contracts/fees-claimer/FeesClaimerLinea.sol:FeesClaimerLinea",
        "label": "pool",
        "offset": 0,
        "slot": "5",
        "type": "t_contract(IPool)3707"
      },
      {
        "astId": 5474,
        "contract": "contracts/fees-claimer/FeesClaimerLinea.sol:FeesClaimerLinea",
        "label": "dataProvider",
        "offset": 0,
        "slot": "6",
        "type": "t_contract(IPoolDataProvider)4140"
      },
      {
        "astId": 5477,
        "contract": "contracts/fees-claimer/FeesClaimerLinea.sol:FeesClaimerLinea",
        "label": "wethOrTargetAsset",
        "offset": 0,
        "slot": "7",
        "type": "t_contract(IWETH)5437"
      },
      {
        "astId": 5895,
        "contract": "contracts/fees-claimer/FeesClaimerLinea.sol:FeesClaimerLinea",
        "label": "treasuryPercentage",
        "offset": 0,
        "slot": "8",
        "type": "t_uint256"
      },
      {
        "astId": 5898,
        "contract": "contracts/fees-claimer/FeesClaimerLinea.sol:FeesClaimerLinea",
        "label": "zlpStaker",
        "offset": 0,
        "slot": "9",
        "type": "t_contract(IStaker)5451"
      },
      {
        "astId": 5900,
        "contract": "contracts/fees-claimer/FeesClaimerLinea.sol:FeesClaimerLinea",
        "label": "treasury",
        "offset": 0,
        "slot": "10",
        "type": "t_address"
      }
    ],
    "types": {
      "t_address": {
        "encoding": "inplace",
        "label": "address",
        "numberOfBytes": "20"
      },
      "t_array(t_address)dyn_storage": {
        "base": "t_address",
        "encoding": "dynamic_array",
        "label": "address[]",
        "numberOfBytes": "32"
      },
      "t_array(t_contract(IERC20)1862)dyn_storage": {
        "base": "t_contract(IERC20)1862",
        "encoding": "dynamic_array",
        "label": "contract IERC20[]",
        "numberOfBytes": "32"
      },
      "t_contract(IERC20)1862": {
        "encoding": "inplace",
        "label": "contract IERC20",
        "numberOfBytes": "20"
      },
      "t_contract(IPool)3707": {
        "encoding": "inplace",
        "label": "contract IPool",
        "numberOfBytes": "20"
      },
      "t_contract(IPoolDataProvider)4140": {
        "encoding": "inplace",
        "label": "contract IPoolDataProvider",
        "numberOfBytes": "20"
      },
      "t_contract(IStaker)5451": {
        "encoding": "inplace",
        "label": "contract IStaker",
        "numberOfBytes": "20"
      },
      "t_contract(IWETH)5437": {
        "encoding": "inplace",
        "label": "contract IWETH",
        "numberOfBytes": "20"
      },
      "t_uint256": {
        "encoding": "inplace",
        "label": "uint256",
        "numberOfBytes": "32"
      }
    }
  }
}